{
  "_format": "hh-sol-artifact-1",
  "contractName": "EcoFilend",
  "sourceName": "contracts/EcoFilend.sol",
  "abi": [
    {
      "inputs": [
        {
          "internalType": "address",
          "name": "_router",
          "type": "address"
        },
        {
          "internalType": "address",
          "name": "_link",
          "type": "address"
        },
        {
          "internalType": "address",
          "name": "_token",
          "type": "address"
        },
        {
          "internalType": "uint64",
          "name": "_destinationChainSelector",
          "type": "uint64"
        },
        {
          "internalType": "address",
          "name": "f_router",
          "type": "address"
        },
        {
          "internalType": "string",
          "name": "_source",
          "type": "string"
        },
        {
          "internalType": "bytes",
          "name": "_encryptedSecretsReference",
          "type": "bytes"
        },
        {
          "internalType": "bytes[]",
          "name": "_bytesArgs",
          "type": "bytes[]"
        },
        {
          "internalType": "uint64",
          "name": "_subscriptionId",
          "type": "uint64"
        },
        {
          "internalType": "address",
          "name": "_stakeCertMinter",
          "type": "address"
        }
      ],
      "stateMutability": "nonpayable",
      "type": "constructor"
    },
    {
      "inputs": [
        {
          "internalType": "uint64",
          "name": "destinationChainSelector",
          "type": "uint64"
        }
      ],
      "name": "DestinationChainNotAllowlisted",
      "type": "error"
    },
    {
      "inputs": [
        {
          "internalType": "uint64",
          "name": "destinationChainSelector",
          "type": "uint64"
        }
      ],
      "name": "DestinationChainNotWhitelisted",
      "type": "error"
    },
    {
      "inputs": [],
      "name": "EmptyArgs",
      "type": "error"
    },
    {
      "inputs": [],
      "name": "EmptySource",
      "type": "error"
    },
    {
      "inputs": [],
      "name": "NoInlineSecrets",
      "type": "error"
    },
    {
      "inputs": [
        {
          "internalType": "uint256",
          "name": "currentBalance",
          "type": "uint256"
        },
        {
          "internalType": "uint256",
          "name": "calculatedFees",
          "type": "uint256"
        }
      ],
      "name": "NotEnoughBalance",
      "type": "error"
    },
    {
      "inputs": [],
      "name": "NothingToWithdraw",
      "type": "error"
    },
    {
      "inputs": [],
      "name": "OnlyRouterCanFulfill",
      "type": "error"
    },
    {
      "anonymous": false,
      "inputs": [
        {
          "indexed": false,
          "internalType": "bytes32",
          "name": "messageId",
          "type": "bytes32"
        }
      ],
      "name": "MessageSent",
      "type": "event"
    },
    {
      "anonymous": false,
      "inputs": [
        {
          "indexed": true,
          "internalType": "address",
          "name": "from",
          "type": "address"
        },
        {
          "indexed": true,
          "internalType": "address",
          "name": "to",
          "type": "address"
        }
      ],
      "name": "OwnershipTransferRequested",
      "type": "event"
    },
    {
      "anonymous": false,
      "inputs": [
        {
          "indexed": true,
          "internalType": "address",
          "name": "from",
          "type": "address"
        },
        {
          "indexed": true,
          "internalType": "address",
          "name": "to",
          "type": "address"
        }
      ],
      "name": "OwnershipTransferred",
      "type": "event"
    },
    {
      "anonymous": false,
      "inputs": [
        {
          "indexed": true,
          "internalType": "bytes32",
          "name": "id",
          "type": "bytes32"
        }
      ],
      "name": "RequestFulfilled",
      "type": "event"
    },
    {
      "anonymous": false,
      "inputs": [
        {
          "indexed": true,
          "internalType": "bytes32",
          "name": "id",
          "type": "bytes32"
        }
      ],
      "name": "RequestSent",
      "type": "event"
    },
    {
      "anonymous": false,
      "inputs": [
        {
          "indexed": true,
          "internalType": "bytes32",
          "name": "messageId",
          "type": "bytes32"
        },
        {
          "indexed": true,
          "internalType": "uint64",
          "name": "destinationChainSelector",
          "type": "uint64"
        },
        {
          "indexed": false,
          "internalType": "address",
          "name": "receiver",
          "type": "address"
        },
        {
          "indexed": false,
          "internalType": "address",
          "name": "token",
          "type": "address"
        },
        {
          "indexed": false,
          "internalType": "uint256",
          "name": "tokenAmount",
          "type": "uint256"
        },
        {
          "indexed": false,
          "internalType": "address",
          "name": "feeToken",
          "type": "address"
        },
        {
          "indexed": false,
          "internalType": "uint256",
          "name": "fees",
          "type": "uint256"
        }
      ],
      "name": "TokensTransferred",
      "type": "event"
    },
    {
      "anonymous": false,
      "inputs": [
        {
          "indexed": false,
          "internalType": "string",
          "name": "project",
          "type": "string"
        }
      ],
      "name": "grantSuccess",
      "type": "event"
    },
    {
      "inputs": [
        {
          "internalType": "uint256",
          "name": "projectId",
          "type": "uint256"
        }
      ],
      "name": "_processResponse",
      "outputs": [
        {
          "internalType": "uint256",
          "name": "index",
          "type": "uint256"
        }
      ],
      "stateMutability": "nonpayable",
      "type": "function"
    },
    {
      "inputs": [
        {
          "internalType": "uint256",
          "name": "_projectId",
          "type": "uint256"
        }
      ],
      "name": "_sendRequest",
      "outputs": [
        {
          "internalType": "bytes32",
          "name": "requestId",
          "type": "bytes32"
        }
      ],
      "stateMutability": "nonpayable",
      "type": "function"
    },
    {
      "inputs": [],
      "name": "acceptOwnership",
      "outputs": [],
      "stateMutability": "nonpayable",
      "type": "function"
    },
    {
      "inputs": [
        {
          "internalType": "uint64",
          "name": "_destinationChainSelector",
          "type": "uint64"
        },
        {
          "internalType": "bool",
          "name": "allowed",
          "type": "bool"
        }
      ],
      "name": "allowlistDestinationChain",
      "outputs": [],
      "stateMutability": "nonpayable",
      "type": "function"
    },
    {
      "inputs": [
        {
          "internalType": "uint64",
          "name": "",
          "type": "uint64"
        }
      ],
      "name": "allowlistedChains",
      "outputs": [
        {
          "internalType": "bool",
          "name": "",
          "type": "bool"
        }
      ],
      "stateMutability": "view",
      "type": "function"
    },
    {
      "inputs": [],
      "name": "donId",
      "outputs": [
        {
          "internalType": "bytes32",
          "name": "",
          "type": "bytes32"
        }
      ],
      "stateMutability": "view",
      "type": "function"
    },
    {
      "inputs": [],
      "name": "getReceivers",
      "outputs": [
        {
          "components": [
            {
              "internalType": "address",
              "name": "owner",
              "type": "address"
            },
            {
              "internalType": "string",
              "name": "name",
              "type": "string"
            },
            {
              "internalType": "uint256",
              "name": "projectId",
              "type": "uint256"
            },
            {
              "internalType": "string",
              "name": "city",
              "type": "string"
            },
            {
              "internalType": "string",
              "name": "state",
              "type": "string"
            },
            {
              "internalType": "string",
              "name": "country",
              "type": "string"
            },
            {
              "internalType": "string",
              "name": "image",
              "type": "string"
            },
            {
              "internalType": "uint256",
              "name": "totalReceived",
              "type": "uint256"
            },
            {
              "internalType": "uint256",
              "name": "stakePower",
              "type": "uint256"
            },
            {
              "internalType": "uint256",
              "name": "pollutionIndex",
              "type": "uint256"
            },
            {
              "internalType": "uint256",
              "name": "oldpollutionIndex",
              "type": "uint256"
            },
            {
              "internalType": "bytes32",
              "name": "latestReqId",
              "type": "bytes32"
            }
          ],
          "internalType": "struct EcoFilend.GrantReceiver[]",
          "name": "",
          "type": "tuple[]"
        }
      ],
      "stateMutability": "view",
      "type": "function"
    },
    {
      "inputs": [
        {
          "internalType": "uint256",
          "name": "_id",
          "type": "uint256"
        }
      ],
      "name": "getTotalReceived",
      "outputs": [
        {
          "internalType": "uint256",
          "name": "",
          "type": "uint256"
        }
      ],
      "stateMutability": "view",
      "type": "function"
    },
    {
      "inputs": [
        {
          "internalType": "uint256",
          "name": "",
          "type": "uint256"
        }
      ],
      "name": "grantreceiversdisplay",
      "outputs": [
        {
          "internalType": "address",
          "name": "owner",
          "type": "address"
        },
        {
          "internalType": "string",
          "name": "name",
          "type": "string"
        },
        {
          "internalType": "uint256",
          "name": "projectId",
          "type": "uint256"
        },
        {
          "internalType": "string",
          "name": "city",
          "type": "string"
        },
        {
          "internalType": "string",
          "name": "state",
          "type": "string"
        },
        {
          "internalType": "string",
          "name": "country",
          "type": "string"
        },
        {
          "internalType": "string",
          "name": "image",
          "type": "string"
        },
        {
          "internalType": "uint256",
          "name": "totalReceived",
          "type": "uint256"
        },
        {
          "internalType": "uint256",
          "name": "stakePower",
          "type": "uint256"
        },
        {
          "internalType": "uint256",
          "name": "pollutionIndex",
          "type": "uint256"
        },
        {
          "internalType": "uint256",
          "name": "oldpollutionIndex",
          "type": "uint256"
        },
        {
          "internalType": "bytes32",
          "name": "latestReqId",
          "type": "bytes32"
        }
      ],
      "stateMutability": "view",
      "type": "function"
    },
    {
      "inputs": [
        {
          "internalType": "bytes32",
          "name": "requestId",
          "type": "bytes32"
        },
        {
          "internalType": "bytes",
          "name": "response",
          "type": "bytes"
        },
        {
          "internalType": "bytes",
          "name": "err",
          "type": "bytes"
        }
      ],
      "name": "handleOracleFulfillment",
      "outputs": [],
      "stateMutability": "nonpayable",
      "type": "function"
    },
    {
      "inputs": [
        {
          "internalType": "uint256",
          "name": "projectId",
          "type": "uint256"
        }
      ],
      "name": "mint",
      "outputs": [
        {
          "internalType": "bytes32",
          "name": "",
          "type": "bytes32"
        }
      ],
      "stateMutability": "nonpayable",
      "type": "function"
    },
    {
      "inputs": [],
      "name": "numberOfReceivers",
      "outputs": [
        {
          "internalType": "uint256",
          "name": "",
          "type": "uint256"
        }
      ],
      "stateMutability": "view",
      "type": "function"
    },
    {
      "inputs": [],
      "name": "owner",
      "outputs": [
        {
          "internalType": "address",
          "name": "",
          "type": "address"
        }
      ],
      "stateMutability": "view",
      "type": "function"
    },
    {
      "inputs": [
        {
          "internalType": "uint256",
          "name": "",
          "type": "uint256"
        },
        {
          "internalType": "address",
          "name": "",
          "type": "address"
        }
      ],
      "name": "projectStakes",
      "outputs": [
        {
          "internalType": "uint256",
          "name": "",
          "type": "uint256"
        }
      ],
      "stateMutability": "view",
      "type": "function"
    },
    {
      "inputs": [
        {
          "internalType": "uint256",
          "name": "",
          "type": "uint256"
        }
      ],
      "name": "projectToResponse",
      "outputs": [
        {
          "internalType": "bytes32",
          "name": "",
          "type": "bytes32"
        }
      ],
      "stateMutability": "view",
      "type": "function"
    },
    {
      "inputs": [
        {
          "internalType": "string",
          "name": "_name",
          "type": "string"
        },
        {
          "internalType": "address",
          "name": "_receiveraddress",
          "type": "address"
        },
        {
          "internalType": "string",
          "name": "_city",
          "type": "string"
        },
        {
          "internalType": "string",
          "name": "_state",
          "type": "string"
        },
        {
          "internalType": "string",
          "name": "_country",
          "type": "string"
        },
        {
          "internalType": "string",
          "name": "_image",
          "type": "string"
        }
      ],
      "name": "register",
      "outputs": [],
      "stateMutability": "nonpayable",
      "type": "function"
    },
    {
      "inputs": [
        {
          "internalType": "bytes32",
          "name": "",
          "type": "bytes32"
        }
      ],
      "name": "requests",
      "outputs": [
        {
          "internalType": "address",
          "name": "owner",
          "type": "address"
        },
        {
          "internalType": "string",
          "name": "name",
          "type": "string"
        },
        {
          "internalType": "uint256",
          "name": "projectId",
          "type": "uint256"
        },
        {
          "internalType": "string",
          "name": "city",
          "type": "string"
        },
        {
          "internalType": "string",
          "name": "state",
          "type": "string"
        },
        {
          "internalType": "string",
          "name": "country",
          "type": "string"
        },
        {
          "internalType": "string",
          "name": "image",
          "type": "string"
        },
        {
          "internalType": "uint256",
          "name": "totalReceived",
          "type": "uint256"
        },
        {
          "internalType": "uint256",
          "name": "stakePower",
          "type": "uint256"
        },
        {
          "internalType": "uint256",
          "name": "pollutionIndex",
          "type": "uint256"
        },
        {
          "internalType": "uint256",
          "name": "oldpollutionIndex",
          "type": "uint256"
        },
        {
          "internalType": "bytes32",
          "name": "latestReqId",
          "type": "bytes32"
        }
      ],
      "stateMutability": "view",
      "type": "function"
    },
    {
      "inputs": [],
      "name": "s_lastError",
      "outputs": [
        {
          "internalType": "bytes",
          "name": "",
          "type": "bytes"
        }
      ],
      "stateMutability": "view",
      "type": "function"
    },
    {
      "inputs": [],
      "name": "s_lastResponse",
      "outputs": [
        {
          "internalType": "bytes",
          "name": "",
          "type": "bytes"
        }
      ],
      "stateMutability": "view",
      "type": "function"
    },
    {
      "inputs": [
        {
          "internalType": "uint256",
          "name": "projectId",
          "type": "uint256"
        }
      ],
      "name": "stakeTokensForProject",
      "outputs": [],
      "stateMutability": "payable",
      "type": "function"
    },
    {
      "inputs": [
        {
          "internalType": "address",
          "name": "to",
          "type": "address"
        }
      ],
      "name": "transferOwnership",
      "outputs": [],
      "stateMutability": "nonpayable",
      "type": "function"
    },
    {
      "inputs": [
        {
          "internalType": "uint256",
          "name": "projectId",
          "type": "uint256"
        },
        {
          "internalType": "uint64",
          "name": "_destinationChainSelector",
          "type": "uint64"
        },
        {
          "internalType": "uint256",
          "name": "_amount",
          "type": "uint256"
        }
      ],
      "name": "transferTokensPayLINK",
      "outputs": [
        {
          "internalType": "bytes32",
          "name": "messageId",
          "type": "bytes32"
        }
      ],
      "stateMutability": "nonpayable",
      "type": "function"
    },
    {
      "inputs": [
        {
          "internalType": "uint64",
          "name": "",
          "type": "uint64"
        }
      ],
      "name": "whitelistedChains",
      "outputs": [
        {
          "internalType": "bool",
          "name": "",
          "type": "bool"
        }
      ],
      "stateMutability": "view",
      "type": "function"
    },
    {
      "inputs": [
        {
          "internalType": "address",
          "name": "_beneficiary",
          "type": "address"
        },
        {
          "internalType": "address",
          "name": "_token",
          "type": "address"
        }
      ],
      "name": "withdrawToken",
      "outputs": [],
      "stateMutability": "nonpayable",
      "type": "function"
    },
    {
      "stateMutability": "payable",
      "type": "receive"
    }
  ],
  "bytecode": "0x60a08060405234620007995762003d65803803809162000020828562000829565b83398101906101408183031262000799576200003c816200084d565b916200004b602083016200084d565b926200005a604084016200084d565b620000686060850162000862565b9062000077608086016200084d565b60a08601519096906001600160401b0381116200079957860185601f82011215620007995785816020620000ae9351910162000877565b60c08701519092906001600160401b038111620007995786620000d3918901620008db565b60e08801519094906001600160401b038111620007995788019587601f8801121562000799578651976001600160401b0389116200052c57604051978960051b996200012360208c018b62000829565b89526020808a019a820101908a838311620007995760208201905b838210620007f857505050505062000169610120620001616101008c0162000862565b9a016200084d565b6001600160a01b03909a166080523315620007b357600080546001600160a01b0319908116331782556509184e72a000601355600b805482166001600160a01b03858116918217909255600c805490931691881691821790925560405163095ea7b360e01b815260048101929092526000196024830152909160209183916044918391905af18015620007a75762000763575b50600d80546001600160a01b03199081166001600160a01b0393841617909155600e8054600f8054909316958416959095179091556001600160e01b031990931693169290921760a09290921b600160a01b600160e01b03169190911790558051906001600160401b0382116200052c5781906200027c600554620008fb565b601f81116200072c575b50602090601f8311600114620006a15760009262000695575b50508160011b916000199060031b1c1916176005555b7f66756e2d6176616c616e6368652d66756a692d3100000000000000000000000060029081556006805460ff191690911790556009805463ffffffff60401b19166a0493e000000000000000001790558051906001600160401b0382116200052c57819062000326600754620008fb565b601f811162000653575b50602090601f8311600114620005d957600092620005cd575b50508160011b916000199060031b1c1916176007555b51906801000000000000000082116200052c576008548260085580831062000542575b506008600090815260008051602062003d4583398151915292915b828210620003fb57600980546001600160401b0319166001600160401b038716179055601080546001600160a01b0319166001600160a01b0388161790556040516133d390816200095282396080518181816103d40152611c6e0152f35b80518051906001600160401b0382116200052c576200041b8654620008fb565b601f8111620004ea575b50602090601f8311600114620004765792826001949360209386956000926200046a575b5050600019600383901b1c191690841b1787555b019401910190926200039d565b01519050388062000449565b908660005260206000209160005b601f1985168110620004d157509260209260019592869583601f19811610620004b7575b505050831b830187556200045d565b015160001960f88460031b161c19169055388080620004a8565b9192602060018192868501518155019401920162000484565b6200051a90876000526020600020601f850160051c8101916020861062000521575b601f0160051c019062000938565b3862000425565b90915081906200050c565b634e487b7160e01b600052604160045260246000fd5b600860005260008051602062003d458339815191529081019083015b8181106200056d575062000382565b806200057c60019254620008fb565b806200058b575b50016200055e565b601f81118314620005a35750600081555b3862000583565b600090828252620005c3601f60208420920160051c820185830162000938565b818355556200059c565b01519050388062000349565b6007600090815260008051602062003d258339815191529350601f198516905b8181106200063a575090846001959493921062000620575b505050811b016007556200035f565b015160001960f88460031b161c1916905538808062000611565b92936020600181928786015181550195019301620005f9565b60076000526200068e9060008051602062003d25833981519152601f850160051c810191602086106200052157601f0160051c019062000938565b3862000330565b0151905038806200029f565b600560009081527f036b6384b5eca791c62761152d0c79bb0604c104a5fb6f4eb0703f3154bb3db09350601f198516905b818110620007135750908460019594939210620006f9575b505050811b01600555620002b5565b015160001960f88460031b161c19169055388080620006ea565b92936020600181928786015181550195019301620006d2565b6200075c9060056000526020600020601f850160051c810191602086106200052157601f0160051c019062000938565b3862000286565b6020813d6020116200079e575b816200077f6020938362000829565b8101031262000799575180151503620007995738620001fc565b600080fd5b3d915062000770565b6040513d6000823e3d90fd5b60405162461bcd60e51b815260206004820152601860248201527f43616e6e6f7420736574206f776e657220746f207a65726f00000000000000006044820152606490fd5b81516001600160401b03811162000799576020916200081d87848094880101620008db565b8152019101906200013e565b601f909101601f19168101906001600160401b038211908210176200052c57604052565b51906001600160a01b03821682036200079957565b51906001600160401b03821682036200079957565b92906001600160401b0381116200052c5760405160209190620008a4601f8301601f191684018262000829565b809482825282870111620007995760005b828110620008c95750600093949550010152565b868101518282018501528301620008b5565b9080601f8301121562000799578151620008f89260200162000877565b90565b90600182811c921680156200092d575b60208310146200091757565b634e487b7160e01b600052602260045260246000fd5b91607f16916200090b565b81811062000944575050565b600081556001016200093856fe6080604052600436101561001b575b361561001957600080fd5b005b60003560e01c80630bb106eb1461019b5780630c94ae10146101965780630ca76175146101915780631007d5791461018c57806317cfd7c114610187578063237427ad146101825780633944ea3a1461017d5780633aeac4e114610178578063403fd15d146101735780634a996b2b1461016e5780634b0795a814610169578063763574f61461016457806379ba50971461015f5780637fa2a27b1461015a578063853d23f4146101555780638da5cb5b146101505780638dbe7b9d1461014b57806396d3b83d146101465780639bb935c0146101415780639d8669851461013c578063a0712d6814610137578063e061646b14610132578063e4b123cb1461012d5763f2fde38b0361000e576114d5565b611499565b61138a565b6110a9565b61100d565b610d26565b610cce565b610ca6565b610c7d565b610c46565b610bac565b610af0565b610ab1565b6109d0565b61091d565b61087c565b610769565b610735565b6105bf565b610572565b610528565b610387565b6101fa565b6101bb565b600435906001600160401b03821682036101b657565b600080fd5b346101b65760203660031901126101b6576001600160401b036101dc6101a0565b166000526017602052602060ff604060002054166040519015158152f35b346101b65760603660031901126101b6576024356001600160401b03811681036101b65761023060209160443590600435612bfd565b604051908152f35b634e487b7160e01b600052604160045260246000fd5b61018081019081106001600160401b0382111761026a57604052565b610238565b604081019081106001600160401b0382111761026a57604052565b60a081019081106001600160401b0382111761026a57604052565b608081019081106001600160401b0382111761026a57604052565b602081019081106001600160401b0382111761026a57604052565b90601f801991011681019081106001600160401b0382111761026a57604052565b604051906103098261026f565b565b604051906103098261028a565b604051906103098261024e565b6001600160401b03811161026a57601f01601f191660200190565b81601f820112156101b65780359061035782610325565b9261036560405194856102db565b828452602083830101116101b657816000926020809301838601378301015290565b346101b65760603660031901126101b6576001600160401b036024358181116101b6576103b8903690600401610340565b906044358181116101b6576103d1903690600401610340565b907f00000000000000000000000000000000000000000000000000000000000000006001600160a01b0316330361051657825190811161026a5761041f8161041a6003546105eb565b611633565b602080601f831160011461048b5750819061045694600092610480575b50508160011b916000199060031b1c191617600355612b14565b6004357f85e1543bf2f84fe80c6badbce3648c8539ad1df4d2b3d822938ca0538be727e6600080a2005b01519050388061043c565b60036000529193601f1985167fc2575a0e9e593c00f959f8c92f12db2869c3395a3b0502d05e2516446f71f85b936000905b8282106104fe5750509160019391866104569794106104e5575b505050811b01600355612b14565b015160001960f88460031b161c191690553880806104d7565b806001869782949787015181550196019401906104bd565b60405163c6829f8360e01b8152600490fd5b346101b65760003660031901126101b6576020601654604051908152f35b602435906001600160a01b03821682036101b657565b600435906001600160a01b03821682036101b657565b346101b65760403660031901126101b65760206105b6610590610546565b6004356000526014835260406000209060018060a01b0316600052602052604060002090565b54604051908152f35b346101b65760203660031901126101b657600435600052600a6020526020604060002054604051908152f35b90600182811c9216801561061b575b602083101461060557565b634e487b7160e01b600052602260045260246000fd5b91607f16916105fa565b6040519060008260035491610639836105eb565b808352926001908181169081156106bf5750600114610660575b50610309925003836102db565b6003600090815291507fc2575a0e9e593c00f959f8c92f12db2869c3395a3b0502d05e2516446f71f85b5b8483106106a45750610309935050810160200138610653565b81935090816020925483858a0101520191019091859261068b565b90506020925061030994915060ff191682840152151560051b82010138610653565b919082519283825260005b84811061070d575050826000602080949584010152601f8019910116010190565b6020818301810151848301820152016106ec565b9060206107329281815201906106e1565b90565b346101b65760003660031901126101b657610765610751610625565b6040519182916020835260208301906106e1565b0390f35b346101b65760403660031901126101b65761078261055c565b61078a610546565b610792611599565b6040516370a0823160e01b81523060048201526020926001600160a01b039290921691908381602481865afa9081156108385760009161084f575b50801561083d5760405163a9059cbb60e01b81526001600160a01b039290921660048301526024820152908290829060449082906000905af180156108385761081257005b8161001992903d10610831575b61082981836102db565b810190613191565b503d61081f565b611c0a565b604051630686827b60e51b8152600490fd5b61086f9150843d8611610875575b61086781836102db565b810190611bfb565b386107cd565b503d61085d565b346101b65760c03660031901126101b65760046001600160401b0381358181116101b6576108ad9036908401610340565b906108b6610546565b6044358281116101b6576108cd9036908601610340565b6064358381116101b6576108e49036908701610340565b916084358481116101b6576108fc9036908801610340565b9360a4359081116101b6576100199661091791369101610340565b946117f2565b60203660031901126101b6576004356109bb60009180835260156020526008604084206109818580808060018060a01b0386541634905af13d156109cb573d61096581610325565b9061097360405192836102db565b81528760203d92013e613326565b0161098d34825461160f565b90556109a433916000526014602052604060002090565b9060018060a01b0316600052602052604060002090565b6109c634825461160f565b905580f35b613326565b346101b657600080600319360112610aae5760405190806004546109f3816105eb565b80855291600191808316908115610a845750600114610a29575b61076585610a1d818703826102db565b60405191829182610721565b9250600483527f8a35acfbc15ff81a39ae7d344fd709f28e8600b4aa8c65c6b64bfe7fe36bd19b5b828410610a6c575050508101602001610a1d82610765610a0d565b80546020858701810191909152909301928101610a51565b86955061076596935060209250610a1d94915060ff191682840152151560051b8201019293610a0d565b80fd5b346101b65760203660031901126101b6576001600160401b03610ad26101a0565b166000526011602052602060ff604060002054166040519015158152f35b346101b657600080600319360112610aae576001546001600160a01b039081163303610b6e5781546001600160a01b0316600080546001600160a01b0319163317905590600180546001600160a01b03191690553391167f8be0079c531659141344cd1fd0a4f28419497f9722a3daafe3b4186f6b6457e08380a380f35b60405162461bcd60e51b815260206004820152601660248201527526bab9ba10313290383937b837b9b2b21037bbb732b960511b6044820152606490fd5b346101b65760203660031901126101b657600a600435806000526015602052604060002090600982019182549384910155610bf7610be8610625565b60208082518301019101611bfb565b928383558303928311610c415761076592610c2f91610c1960135480936121ed565b506001600160401b03600e5460a01c1690612bfd565b50546040519081529081906020820190565b6115eb565b346101b65760203660031901126101b6576004356000526015602052602060e0610c736040600020613018565b0151604051908152f35b346101b65760003660031901126101b6576000546040516001600160a01b039091168152602090f35b346101b65760003660031901126101b6576020600254604051908152f35b801515036101b657565b346101b65760403660031901126101b657610ce76101a0565b6001600160401b0360243591610cfc83610cc4565b610d04611599565b16600052601760205260406000209060ff801983541691151516179055600080f35b346101b65760203660031901126101b657610765600b610d526004356000526015602052604060002090565b610e09610de8610d60611983565b610d6c60038501610ed4565b610d75826119d0565b52610d7f816119d0565b50610d8c60048501610ed4565b610d95826119e2565b52610d9f816119e2565b50610dac60058501610ed4565b610db5826119f2565b52610dbf816119f2565b50610dd2610dcb611a16565b918261203d565b610de3610ddd610e3b565b82612014565b611e41565b600954600254916001600160401b0363ffffffff8360401c16921690611c16565b9181610e298493610e24856000526012602052604060002090565b611b45565b01556040519081529081906020820190565b6040519060008260055491610e4f836105eb565b808352926001908181169081156106bf5750600114610e755750610309925003836102db565b6005600090815291507f036b6384b5eca791c62761152d0c79bb0604c104a5fb6f4eb0703f3154bb3db05b848310610eb95750610309935050810160200138610653565b81935090816020925483858a01015201910190918592610ea0565b9060405191826000825492610ee8846105eb565b908184526001948581169081600014610f555750600114610f12575b5050610309925003836102db565b9093915060005260209081600020936000915b818310610f3d57505061030993508201013880610f04565b85548884018501529485019487945091830191610f25565b91505061030994506020925060ff191682840152151560051b8201013880610f04565b98959194610fc78a999e9d9c996101609c9996610fe3966040610fb7610ff19b610fd59860018060a01b031686526101808060208801528601906106e1565b9301528c820360608e01526106e1565b908a820360808c01526106e1565b9088820360a08a01526106e1565b9086820360c08801526106e1565b9760e08501526101008401526101208301526101408201520152565b346101b65760203660031901126101b657600435600090815260126020526040902080546001600160a01b031661076561104960018401610ed4565b9260028101549061105c60038201610ed4565b61106860048301610ed4565b61107460058401610ed4565b61108060068501610ed4565b600785015491600886015493600987015495600b600a890154980154986040519c8d9c8d610f78565b346101b6576020806003193601126101b6576110f26110ea6110d76004356000526014602052604060002090565b3360009081526020919091526040902090565b541515613360565b601054604080516001600160a01b039092168383019081528290038083526111fc928491601f199061112790602001836102db565b83516335313c2160e11b84820152336024820152604491820181529061114d90826102db565b6111a86111586131a6565b916111756111646102fc565b62030d4081526000878201526132f7565b600c549093906001600160a01b03169161118d61030b565b95865286860152868501526001600160a01b03166060840152565b6080820152600b546111d0906111c4906001600160a01b031681565b6001600160a01b031690565b600e5460a01c6001600160401b0316600085518097819582946396f4e9f960e01b8452600484016130c5565b03925af1918215610838576107659360009361124e575b505080518281527f54791b38f3859327992a1ca0590ad3c0f08feba98d1a4f56ab0dca74d203392a90602090a1519081529081906020820190565b611265929350803d106108755761086781836102db565b903880611213565b602080820190808352835180925260409283810182858560051b8401019601946000925b8584106112a2575050505050505090565b909192939495968580600192603f198582030187528a51906112cc81835160018060a01b03169052565b61134361133061131d61130a6112ef87870151610180808a8901528701906106e1565b8b8701518c87015260608088015190878303908801526106e1565b60808087015190868303908701526106e1565b60a08086015190858303908601526106e1565b60c08085015190848303908501526106e1565b9160e0808201519083015261010080820151908301526101208082015190830152610140808201519083015261016080910151910152990194019401929594939190611291565b346101b657600080600319360112610aae57601654906113a98261196c565b906040906113b9825193846102db565b838352601f196113c88561196c565b0190805b8281106114375750505060015b838111156113ee57815180610765858261126d565b8061142c611409611432936000526015602052604060002090565b61141b611415846120c6565b91613018565b6114258288611a02565b5285611a02565b50611dbf565b6113d9565b60209084516114458161024e565b838152606083908082840152858884015280808401528060808401528060a084015260c08301528460e0830152846101008301528461012083015284610140830152846101608301528288010152016113cc565b346101b65760203660031901126101b657600435600090815260156020526040902080546001600160a01b031661076561104960018401610ed4565b346101b65760203660031901126101b6576114ee61055c565b6114f6611599565b6001600160a01b031633811461155457600180546001600160a01b0319168217905560005461152d906001600160a01b03166111c4565b7fed8889f560326eb138920d842192f0eb3dd22b4f139c87a2c57538e05bae1278600080a3005b60405162461bcd60e51b815260206004820152601760248201527f43616e6e6f74207472616e7366657220746f2073656c660000000000000000006044820152606490fd5b6000546001600160a01b031633036115ad57565b60405162461bcd60e51b815260206004820152601660248201527527b7363c9031b0b63630b1363290313c9037bbb732b960511b6044820152606490fd5b634e487b7160e01b600052601160045260246000fd5b9060208201809211610c4157565b91908201809211610c4157565b818110611627575050565b6000815560010161161c565b90601f8211611640575050565b6103099160036000527fc2575a0e9e593c00f959f8c92f12db2869c3395a3b0502d05e2516446f71f85b906020601f840160051c8301931061168a575b601f0160051c019061161c565b909150819061167d565b90601f82116116a1575050565b6103099160046000527f8a35acfbc15ff81a39ae7d344fd709f28e8600b4aa8c65c6b64bfe7fe36bd19b906020601f840160051c8301931061168a57601f0160051c019061161c565b9190601f81116116f957505050565b610309926000526020600020906020601f840160051c8301931061168a57601f0160051c019061161c565b91909182516001600160401b03811161026a5761174b8161174584546105eb565b846116ea565b602080601f831160011461178757508192939460009261177c575b50508160011b916000199060031b1c1916179055565b015190503880611766565b90601f1983169561179d85600052602060002090565b926000905b8882106117da575050836001959697106117c1575b505050811b019055565b015160001960f88460031b161c191690553880806117b7565b806001859682949686015181550195019301906117a2565b929094939160165495600194858801809811610c41578760005260209060158252604060002096896002890155808801928251926001600160401b03841161026a576118488461184287546105eb565b876116ea565b81601f85116001146118df5750956118ae6118c9966103099d9c9a9686806118c0986118cf9f9c986118b79860069f9a6000946118d4575b50501b916000199060031b1c19161790555b88546001600160a01b0319166001600160a01b03909116178855565b60038701611724565b60048501611724565b60058301611724565b01611724565b601655565b015192503880611880565b9190601f9493941984166118f887600052602060002090565b936000905b828210611955575050966103099d9c9a966118c096866118b7966118cf9f9c966118ae9660069f9a6118c99e1061193c575b505050811b019055611892565b015160001960f88460031b161c1916905538808061192f565b8088869782949787015181550196019401906118fd565b6001600160401b03811161026a5760051b60200190565b60405190611990826102a5565b60038252819060005b6060808210156119b3579060209182828701015201611999565b5050909150565b634e487b7160e01b600052603260045260246000fd5b8051156119dd5760200190565b6119ba565b8051600110156119dd5760400190565b8051600210156119dd5760600190565b80518210156119dd5760209160051b010190565b6040519060e082018281106001600160401b0382111761026a57604052606060c08360008152600060208201526000604082015282808201528260808201528260a08201520152565b919091828114611b4057611a7383546105eb565b6001600160401b03811161026a57611a8f8161174584546105eb565b600093601f8211600114611aca579381929394600092611abf5750508160011b916000199060031b1c1916179055565b015490503880611766565b611ade601f19831691600052602060002090565b94611aee84600052602060002090565b91815b818110611b2857509583600195969710611b0f57505050811b019055565b015460001960f88460031b161c191690553880806117b7565b87830154845560019384019390920191602001611af1565b509050565b90808203611b51575050565b805482546001600160a01b0319166001600160a01b03909116178255600b908190611b826001820160018601611a5f565b60028101546002850155611b9c6003820160038601611a5f565b611bac6004820160048601611a5f565b611bbc6005820160058601611a5f565b611bcc6006820160068601611a5f565b600781015460078501556008810154600885015560098101546009850155600a810154600a8501550154910155565b908160209103126101b6575190565b6040513d6000823e3d90fd5b92906020926001600160401b039263ffffffff611c55604051978896879663230e93b160e11b885216600487015260a0602487015260a48601906106e1565b60016044860152921660648401526084830152038160007f00000000000000000000000000000000000000000000000000000000000000006001600160a01b03165af190811561083857600091611cd1575b50807f1131472297a800fee664d1d89cfa8f7676ff07189ecc53f80bbb5f4969099db8600080a290565b611ce9915060203d81116108755761086781836102db565b38611ca7565b60405190611cfc826102c0565b60008252565b60405190611d0f8261026f565b600c82526b31b7b232a637b1b0ba34b7b760a11b6020830152565b634e487b7160e01b600052602160045260246000fd5b60031115611d4a57565b611d2a565b60405190611d5c8261026f565b60088252676c616e677561676560c01b6020830152565b60011115611d4a57565b60405190611d8a8261026f565b6006825265736f7572636560d01b6020830152565b60405190611dac8261026f565b60048252636172677360e01b6020830152565b6000198114610c415760010190565b60405190611ddb8261026f565b600f82526e39b2b1b932ba39a637b1b0ba34b7b760891b6020830152565b60405190611e068261026f565b60078252667365637265747360c81b6020830152565b60405190611e298261026f565b600982526862797465734172677360b81b6020830152565b611e49612076565b90611e5b611e55611d02565b836127d5565b611e788151611e6981611d40565b611e7281611d40565b83612136565b611e83611e55611d4f565b611e9d6040820151611e9481611d73565b611e7281611d73565b611ea8611e55611d7d565b611eb66060820151836127d5565b60a08101805151611fbb575b506080810190815151611f3b575b60c0915001805151611ee3575b50515190565b91611eef611e55611e1c565b611ef882612859565b60005b83518051821015611f285790611f1e611f1782611f2394611a02565b5185612720565b611dbf565b611efb565b50509150611f35816128e5565b38611edd565b602081018051611f4a81611d40565b611f5381611d40565b15611fa95760c092611f8c611fa492611f73611f6d611dce565b886127d5565b51611f7d81611d40565b611f8681611d40565b86612136565b611f9d611f97611df9565b866127d5565b5184612720565b611ed0565b60405163a80d31f760e01b8152600490fd5b92611fcd611fc7611d9f565b846127d5565b611fd683612859565b60005b845180518210156120015790611f1e611ff582611ffc94611a02565b51866127d5565b611fd9565b5050925061200e826128e5565b38611ec2565b81511561202b576000808252604082015260600152565b6040516322ce3edd60e01b8152600490fd5b81511561204a5760a00152565b60405163fe936cb760e01b8152600490fd5b604051906120698261026f565b6000602083606081520152565b6040516120828161026f565b61208a61205c565b808252602082016000815261209d61205c565b5061010060208301526040518092526000825261012082019182106101b6576000916040525290565b600019810191908211610c4157565b601f19810191908211610c4157565b906120ed61205c565b50601f81168061211c575b50806020830152604051908183526000825281016020019081106101b65760405290565b60200360208111610c41578101809111610c4157386120f8565b9081519161214261205c565b508251516001810190818111610c4157602085015181101561219b575b60c260206103099651928301015380518211612193575b50506040519160208301526020825261218e8261026f565b612720565b523880612176565b8160011b9482860460021483151715610c41576020816121cd610309986121c660c2955191846120e4565b5082612668565b509650505061215f565b908160011b9180830460021490151715610c4157565b81810292918115918404141715610c4157565b61220861205c565b508051516001810190818111610c41576020830151811015612241575b605b6020845192830101538051821161223d57505090565b5290565b8160011b82810460021483151715610c415761226a90612263855191866120e4565b5084612668565b50612225565b61227861205c565b508051516001810190818111610c415760208301518110156122ad575b605a6020845192830101538051821161223d57505090565b8160011b82810460021483151715610c41576122cf90612263855191866120e4565b50612295565b6122dd61205c565b508051516001810190818111610c41576020830151811015612312575b60596020845192830101538051821161223d57505090565b8160011b82810460021483151715610c415761233490612263855191866120e4565b506122fa565b61234261205c565b508051516001810190818111610c41576020830151811015612377575b60586020845192830101538051821161223d57505090565b8160011b82810460021483151715610c415761239990612263855191866120e4565b5061235f565b6123a761205c565b508051516001810190818111610c415760208301518110156123dc575b607b6020845192830101538051821161223d57505090565b8160011b82810460021483151715610c41576123fe90612263855191866120e4565b506123c4565b61240c61205c565b508051516001810190818111610c41576020830151811015612441575b607a6020845192830101538051821161223d57505090565b8160011b82810460021483151715610c415761246390612263855191866120e4565b50612429565b61247161205c565b508051516001810190818111610c415760208301518110156124a6575b60796020845192830101538051821161223d57505090565b8160011b82810460021483151715610c41576124c890612263855191866120e4565b5061248e565b6124d661205c565b508051516001810190818111610c4157602083015181101561250b575b60786020845192830101538051821161223d57505090565b8160011b82810460021483151715610c415761252d90612263855191866120e4565b506124f3565b9061253c61205c565b508151516001810191828211610c4157602084015182101561256f575b6020845192830101538051821161223d57505090565b8260011b83810460021484151715610c415761259890612591865191876120e4565b5085612668565b50612559565b906125ab825191836120e4565b506125b461205c565b508051906125c061205c565b506125ce8151831115612719565b825151926125dc838561160f565b916020928284809401518211612651575b5183815197820101968211612649575b505001915b818110156126235760001991036101000a0190811990511690825116179052565b919261263e6126386126449286518152611601565b94611601565b926120d5565b612602565b5238806125fd565b61266361265d836121d7565b8261259e565b6125ed565b9061267161205c565b50805161267c61205c565b5061268a8251821115612719565b82515191612698828461160f565b6020918291828701518111612702575b8651838151978201019682116126fa575b505001915b818110156126e05760001991036101000a019081199051169082511617905290565b919261263e6126386126f59286518152611601565b6126be565b5238806126b9565b61271461270e826121d7565b8861259e565b6126a8565b156101b657565b81516127579291906001600160401b038116906017821161275a5761274f9150604060ff845192161790612533565b505b51612668565b50565b5060ff811161277f5761277990612771835161233a565b508251612aae565b50612751565b61ffff811161279e576127799061279683516122d5565b508251612a47565b63ffffffff81116127bf57612779906127b78351612270565b5082516129de565b612779906127cd8351612200565b508251612972565b81516127579291906001600160401b03811690601782116128045761274f9150606060ff845192161790612533565b5060ff811161281b576127799061277183516124ce565b61ffff811161283257612779906127968351612469565b63ffffffff811161284b57612779906127b78351612404565b612779906127cd835161239f565b80519061286461205c565b508151516001810190818111610c415760208401518110156128b2575b609f60208095519283010153805182116128aa575b50500180519060018201809211610c415752565b523880612896565b8160011b9382850460021483151715610c41576020816128db82976121c6609f955191846120e4565b5095505050612881565b8051906128f061205c565b508151516001810190818111610c4157602084015181101561293f575b60ff6020809551928301015380518211612937575b5050018051600019810191908211610c415752565b523880612922565b8160011b9382850460021483151715610c415760208161296882976121c660ff955191846120e4565b509550505061290d565b9061297b61205c565b50815151806008019182600811610c4157602084015183116129bd575b6008845192830101906001600160401b03198251161790528051821161223d57505090565b8260011b83810460021484151715610c41576129d9908561259e565b612998565b906129e761205c565b50815151806004019182600411610c415760208401518311612a26575b60048451928301019063ffffffff198251161790528051821161223d57505090565b8260011b83810460021484151715610c4157612a42908561259e565b612a04565b90612a5061205c565b50815151806002019182600211610c415760208401518311612a8d575b60028451928301019061ffff198251161790528051821161223d57505090565b8260011b83810460021484151715610c4157612aa9908561259e565b612a6d565b90612ab761205c565b50815151806001019182600111610c415760208401518311612af3575b60018451928301019060ff198251161790528051821161223d57505090565b8260011b83810460021484151715610c4157612b0f908561259e565b612ad4565b9081516001600160401b03811161026a57612b3981612b346004546105eb565b611694565b602080601f8311600114612b755750819293600092612b6a575b50508160011b916000199060031b1c191617600455565b015190503880612b53565b90601f19831694612ba860046000527f8a35acfbc15ff81a39ae7d344fd709f28e8600b4aa8c65c6b64bfe7fe36bd19b90565b926000905b878210612be5575050836001959610612bcc575b505050811b01600455565b015160001960f88460031b161c19169055388080612bc1565b80600185968294968601518155019501930190612bad565b9091612c07611599565b6001600160401b0383169160009383855260206017815260409260ff84882054161561300057612c44612c49916000526015602052604060002090565b613018565b8051600f54600e546001600160a01b039182169593949392612c7d92908116918991612c7591166111c4565b968792613208565b600d54612c92906001600160a01b03166111c4565b86516320487ded60e01b81529560049190858880612cb387898884016130c5565b0381855afa978815610838578c98612fe1575b5088516370a0823160e01b808252308583019081529091908890829081906020010381865afa908115610838578e91612fc4575b508911612f4557509085612d3f8d97969594938a8c51998a8094819363095ea7b360e01b988984528a840160209093929193604081019460018060a01b031681520152565b03925af1958615610838578c86928c92612db399612f28575b50600f54612d70906111c4906001600160a01b031681565b600d54909290612d88906001600160a01b03166111c4565b8d519283526001600160a01b0316868301908152602081019490945290988993849291839160400190565b03925af192831561083857612dfc958594612f0b575b50600d548c90612de1906001600160a01b03166111c4565b928a51978895869485936396f4e9f960e01b855284016130c5565b03925af19788156108385797612ebc575b505091612eb6869492612e598560e07fc15fb748c32ba4eb29c1c311e78533f93b4425eab49ea87c6fe4279ecadca0439701612e4a87825161160f565b9052516001600160a01b031690565b600f549093906001600160a01b0316600e54909590612e80906001600160a01b03166111c4565b91516001600160a01b039586168152958516602087015260408601529290921660608401526080830191909152819060a0820190565b0390a390565b612e59975092612f00612eb692857fc15fb748c32ba4eb29c1c311e78533f93b4425eab49ea87c6fe4279ecadca04397959896903d106108755761086781836102db565b975092949193612e0d565b612f2190853d87116108315761082981836102db565b5038612dc9565b612f3e90853d87116108315761082981836102db565b5038612d58565b8951908152308185019081528d9285928b928d928b91829184918290819060200103915afa9586156108385795612f9d575b505051634787a10360e11b815291820192835260208301529081906040010390fd5b0390fd5b612f99939295509081612fbb92903d106108755761086781836102db565b93909185612f77565b612fdb9150883d8a116108755761086781836102db565b38612cfa565b612ff9919850863d88116108755761086781836102db565b9638612cc6565b8351630a503cdb60e01b815260048101879052602490fd5b90600b613023610318565b83546001600160a01b031681529261303d60018201610ed4565b60208501526002810154604085015261305860038201610ed4565b606085015261306960048201610ed4565b608085015261307a60058201610ed4565b60a085015261308b60068201610ed4565b60c0850152600781015460e085015260088101546101008501526009810154610120850152600a8101546101408501520154610160830152565b906001600160401b0390939293168152604060209181838201526130f4855160a08484015260e08301906106e1565b916131108487015193603f1994858583030160608601526106e1565b8187015194848483030160808501528080875193848152019601926000905b8382106131685750505060608701516001600160a01b031660a0840152509394610732945060c0906080015192828503019101526106e1565b845180516001600160a01b0316895283015188840152968701969382019360019091019061312f565b908160209103126101b6575161073281610cc4565b6040516131b2816102c0565b6000815290565b6040908151916131c88361026f565b600183528291600091825b6020808210156131ff578251602092916131ec8261026f565b86825286818301528289010152016131d3565b50505091925050565b9260806132a5613297956132ef946040516132228161028a565b606094818680935282602082015282604082015260008382015201526132466131b9565b966132616132526102fc565b6001600160a01b039093168352565b602082015261326f876119d0565b52613279866119d0565b50604080516001600160a01b03909216602083015290968791820190565b03601f1981018752866102db565b6132c06132b06102fc565b60008152600060208201526132f7565b936132c961030b565b9586526132d4611cef565b602087015260408601526001600160a01b0390911690840152565b608082015290565b6020604051916397a657c960e01b828401528051602484015201511515604482015260448152610732816102a5565b1561332d57565b60405162461bcd60e51b815260206004820152600b60248201526a10d85b1b0819985a5b195960aa1b6044820152606490fd5b1561336757565b60405162461bcd60e51b815260206004820152600e60248201526d4e6f205374616b6573204d61646560901b6044820152606490fdfea264697066735822122029d4f929f93ed4a8b781664b64a3522e8d37d7560ba8237c46df79e15eec12e564736f6c63430008130033a66cc928b5edb82af9bd49922954155ab7b0942694bea4ce44661d9a8736c688f3f7a9fe364faab93b216da50a3214154f22a0a2b415b23a84c8169e8b636ee3",
  "linkReferences": {},
  "deployedLinkReferences": {}
}