{
  "_format": "hh-sol-artifact-1",
  "contractName": "EcoFilend",
  "sourceName": "contracts/EcoFilend.sol",
  "abi": [
    {
      "inputs": [
        {
          "internalType": "address",
          "name": "_router",
          "type": "address"
        },
        {
          "internalType": "address",
          "name": "_link",
          "type": "address"
        },
        {
          "internalType": "address",
          "name": "_token",
          "type": "address"
        },
        {
          "internalType": "uint64",
          "name": "_destinationChainSelector",
          "type": "uint64"
        },
        {
          "internalType": "address",
          "name": "f_router",
          "type": "address"
        },
        {
          "internalType": "string",
          "name": "_source",
          "type": "string"
        },
        {
          "internalType": "bytes",
          "name": "_encryptedSecretsReference",
          "type": "bytes"
        },
        {
          "internalType": "bytes[]",
          "name": "_bytesArgs",
          "type": "bytes[]"
        },
        {
          "internalType": "uint64",
          "name": "_subscriptionId",
          "type": "uint64"
        },
        {
          "internalType": "address",
          "name": "_stakeCertMinter",
          "type": "address"
        }
      ],
      "stateMutability": "nonpayable",
      "type": "constructor"
    },
    {
      "inputs": [
        {
          "internalType": "uint64",
          "name": "destinationChainSelector",
          "type": "uint64"
        }
      ],
      "name": "DestinationChainNotAllowlisted",
      "type": "error"
    },
    {
      "inputs": [
        {
          "internalType": "uint64",
          "name": "destinationChainSelector",
          "type": "uint64"
        }
      ],
      "name": "DestinationChainNotWhitelisted",
      "type": "error"
    },
    {
      "inputs": [],
      "name": "EmptyArgs",
      "type": "error"
    },
    {
      "inputs": [],
      "name": "EmptySource",
      "type": "error"
    },
    {
      "inputs": [],
      "name": "NoInlineSecrets",
      "type": "error"
    },
    {
      "inputs": [
        {
          "internalType": "uint256",
          "name": "currentBalance",
          "type": "uint256"
        },
        {
          "internalType": "uint256",
          "name": "calculatedFees",
          "type": "uint256"
        }
      ],
      "name": "NotEnoughBalance",
      "type": "error"
    },
    {
      "inputs": [],
      "name": "NothingToWithdraw",
      "type": "error"
    },
    {
      "inputs": [],
      "name": "OnlyRouterCanFulfill",
      "type": "error"
    },
    {
      "anonymous": false,
      "inputs": [
        {
          "indexed": false,
          "internalType": "bytes32",
          "name": "messageId",
          "type": "bytes32"
        }
      ],
      "name": "MessageSent",
      "type": "event"
    },
    {
      "anonymous": false,
      "inputs": [
        {
          "indexed": true,
          "internalType": "address",
          "name": "from",
          "type": "address"
        },
        {
          "indexed": true,
          "internalType": "address",
          "name": "to",
          "type": "address"
        }
      ],
      "name": "OwnershipTransferRequested",
      "type": "event"
    },
    {
      "anonymous": false,
      "inputs": [
        {
          "indexed": true,
          "internalType": "address",
          "name": "from",
          "type": "address"
        },
        {
          "indexed": true,
          "internalType": "address",
          "name": "to",
          "type": "address"
        }
      ],
      "name": "OwnershipTransferred",
      "type": "event"
    },
    {
      "anonymous": false,
      "inputs": [
        {
          "indexed": true,
          "internalType": "bytes32",
          "name": "id",
          "type": "bytes32"
        }
      ],
      "name": "RequestFulfilled",
      "type": "event"
    },
    {
      "anonymous": false,
      "inputs": [
        {
          "indexed": true,
          "internalType": "bytes32",
          "name": "id",
          "type": "bytes32"
        }
      ],
      "name": "RequestSent",
      "type": "event"
    },
    {
      "anonymous": false,
      "inputs": [
        {
          "indexed": true,
          "internalType": "bytes32",
          "name": "messageId",
          "type": "bytes32"
        },
        {
          "indexed": true,
          "internalType": "uint64",
          "name": "destinationChainSelector",
          "type": "uint64"
        },
        {
          "indexed": false,
          "internalType": "address",
          "name": "receiver",
          "type": "address"
        },
        {
          "indexed": false,
          "internalType": "address",
          "name": "token",
          "type": "address"
        },
        {
          "indexed": false,
          "internalType": "uint256",
          "name": "tokenAmount",
          "type": "uint256"
        },
        {
          "indexed": false,
          "internalType": "address",
          "name": "feeToken",
          "type": "address"
        },
        {
          "indexed": false,
          "internalType": "uint256",
          "name": "fees",
          "type": "uint256"
        }
      ],
      "name": "TokensTransferred",
      "type": "event"
    },
    {
      "anonymous": false,
      "inputs": [
        {
          "indexed": false,
          "internalType": "string",
          "name": "project",
          "type": "string"
        }
      ],
      "name": "grantSuccess",
      "type": "event"
    },
    {
      "inputs": [
        {
          "internalType": "uint256",
          "name": "projectId",
          "type": "uint256"
        }
      ],
      "name": "_processResponse",
      "outputs": [
        {
          "internalType": "uint256",
          "name": "index",
          "type": "uint256"
        }
      ],
      "stateMutability": "nonpayable",
      "type": "function"
    },
    {
      "inputs": [
        {
          "internalType": "uint256",
          "name": "_projectId",
          "type": "uint256"
        }
      ],
      "name": "_sendRequest",
      "outputs": [
        {
          "internalType": "bytes32",
          "name": "requestId",
          "type": "bytes32"
        }
      ],
      "stateMutability": "nonpayable",
      "type": "function"
    },
    {
      "inputs": [],
      "name": "acceptOwnership",
      "outputs": [],
      "stateMutability": "nonpayable",
      "type": "function"
    },
    {
      "inputs": [
        {
          "internalType": "uint64",
          "name": "_destinationChainSelector",
          "type": "uint64"
        },
        {
          "internalType": "bool",
          "name": "allowed",
          "type": "bool"
        }
      ],
      "name": "allowlistDestinationChain",
      "outputs": [],
      "stateMutability": "nonpayable",
      "type": "function"
    },
    {
      "inputs": [
        {
          "internalType": "uint64",
          "name": "",
          "type": "uint64"
        }
      ],
      "name": "allowlistedChains",
      "outputs": [
        {
          "internalType": "bool",
          "name": "",
          "type": "bool"
        }
      ],
      "stateMutability": "view",
      "type": "function"
    },
    {
      "inputs": [],
      "name": "donId",
      "outputs": [
        {
          "internalType": "bytes32",
          "name": "",
          "type": "bytes32"
        }
      ],
      "stateMutability": "view",
      "type": "function"
    },
    {
      "inputs": [],
      "name": "getReceivers",
      "outputs": [
        {
          "components": [
            {
              "internalType": "address",
              "name": "owner",
              "type": "address"
            },
            {
              "internalType": "string",
              "name": "name",
              "type": "string"
            },
            {
              "internalType": "uint256",
              "name": "projectId",
              "type": "uint256"
            },
            {
              "internalType": "string",
              "name": "city",
              "type": "string"
            },
            {
              "internalType": "string",
              "name": "state",
              "type": "string"
            },
            {
              "internalType": "string",
              "name": "country",
              "type": "string"
            },
            {
              "internalType": "string",
              "name": "image",
              "type": "string"
            },
            {
              "internalType": "uint256",
              "name": "totalReceived",
              "type": "uint256"
            },
            {
              "internalType": "uint256",
              "name": "stakePower",
              "type": "uint256"
            },
            {
              "internalType": "uint256",
              "name": "pollutionIndex",
              "type": "uint256"
            },
            {
              "internalType": "uint256",
              "name": "oldpollutionIndex",
              "type": "uint256"
            },
            {
              "internalType": "bytes32",
              "name": "latestReqId",
              "type": "bytes32"
            }
          ],
          "internalType": "struct EcoFilend.GrantReceiver[]",
          "name": "",
          "type": "tuple[]"
        }
      ],
      "stateMutability": "view",
      "type": "function"
    },
    {
      "inputs": [
        {
          "internalType": "uint256",
          "name": "_id",
          "type": "uint256"
        }
      ],
      "name": "getTotalReceived",
      "outputs": [
        {
          "internalType": "uint256",
          "name": "",
          "type": "uint256"
        }
      ],
      "stateMutability": "view",
      "type": "function"
    },
    {
      "inputs": [
        {
          "internalType": "uint256",
          "name": "",
          "type": "uint256"
        }
      ],
      "name": "grantreceiversdisplay",
      "outputs": [
        {
          "internalType": "address",
          "name": "owner",
          "type": "address"
        },
        {
          "internalType": "string",
          "name": "name",
          "type": "string"
        },
        {
          "internalType": "uint256",
          "name": "projectId",
          "type": "uint256"
        },
        {
          "internalType": "string",
          "name": "city",
          "type": "string"
        },
        {
          "internalType": "string",
          "name": "state",
          "type": "string"
        },
        {
          "internalType": "string",
          "name": "country",
          "type": "string"
        },
        {
          "internalType": "string",
          "name": "image",
          "type": "string"
        },
        {
          "internalType": "uint256",
          "name": "totalReceived",
          "type": "uint256"
        },
        {
          "internalType": "uint256",
          "name": "stakePower",
          "type": "uint256"
        },
        {
          "internalType": "uint256",
          "name": "pollutionIndex",
          "type": "uint256"
        },
        {
          "internalType": "uint256",
          "name": "oldpollutionIndex",
          "type": "uint256"
        },
        {
          "internalType": "bytes32",
          "name": "latestReqId",
          "type": "bytes32"
        }
      ],
      "stateMutability": "view",
      "type": "function"
    },
    {
      "inputs": [
        {
          "internalType": "bytes32",
          "name": "requestId",
          "type": "bytes32"
        },
        {
          "internalType": "bytes",
          "name": "response",
          "type": "bytes"
        },
        {
          "internalType": "bytes",
          "name": "err",
          "type": "bytes"
        }
      ],
      "name": "handleOracleFulfillment",
      "outputs": [],
      "stateMutability": "nonpayable",
      "type": "function"
    },
    {
      "inputs": [],
      "name": "mint",
      "outputs": [],
      "stateMutability": "nonpayable",
      "type": "function"
    },
    {
      "inputs": [],
      "name": "numberOfReceivers",
      "outputs": [
        {
          "internalType": "uint256",
          "name": "",
          "type": "uint256"
        }
      ],
      "stateMutability": "view",
      "type": "function"
    },
    {
      "inputs": [],
      "name": "owner",
      "outputs": [
        {
          "internalType": "address",
          "name": "",
          "type": "address"
        }
      ],
      "stateMutability": "view",
      "type": "function"
    },
    {
      "inputs": [
        {
          "internalType": "uint256",
          "name": "",
          "type": "uint256"
        },
        {
          "internalType": "address",
          "name": "",
          "type": "address"
        }
      ],
      "name": "projectStakes",
      "outputs": [
        {
          "internalType": "uint256",
          "name": "",
          "type": "uint256"
        }
      ],
      "stateMutability": "view",
      "type": "function"
    },
    {
      "inputs": [
        {
          "internalType": "uint256",
          "name": "",
          "type": "uint256"
        }
      ],
      "name": "projectToResponse",
      "outputs": [
        {
          "internalType": "bytes32",
          "name": "",
          "type": "bytes32"
        }
      ],
      "stateMutability": "view",
      "type": "function"
    },
    {
      "inputs": [
        {
          "internalType": "string",
          "name": "_name",
          "type": "string"
        },
        {
          "internalType": "address",
          "name": "_receiveraddress",
          "type": "address"
        },
        {
          "internalType": "string",
          "name": "_city",
          "type": "string"
        },
        {
          "internalType": "string",
          "name": "_state",
          "type": "string"
        },
        {
          "internalType": "string",
          "name": "_country",
          "type": "string"
        },
        {
          "internalType": "string",
          "name": "_image",
          "type": "string"
        }
      ],
      "name": "register",
      "outputs": [],
      "stateMutability": "nonpayable",
      "type": "function"
    },
    {
      "inputs": [
        {
          "internalType": "bytes32",
          "name": "",
          "type": "bytes32"
        }
      ],
      "name": "requests",
      "outputs": [
        {
          "internalType": "address",
          "name": "owner",
          "type": "address"
        },
        {
          "internalType": "string",
          "name": "name",
          "type": "string"
        },
        {
          "internalType": "uint256",
          "name": "projectId",
          "type": "uint256"
        },
        {
          "internalType": "string",
          "name": "city",
          "type": "string"
        },
        {
          "internalType": "string",
          "name": "state",
          "type": "string"
        },
        {
          "internalType": "string",
          "name": "country",
          "type": "string"
        },
        {
          "internalType": "string",
          "name": "image",
          "type": "string"
        },
        {
          "internalType": "uint256",
          "name": "totalReceived",
          "type": "uint256"
        },
        {
          "internalType": "uint256",
          "name": "stakePower",
          "type": "uint256"
        },
        {
          "internalType": "uint256",
          "name": "pollutionIndex",
          "type": "uint256"
        },
        {
          "internalType": "uint256",
          "name": "oldpollutionIndex",
          "type": "uint256"
        },
        {
          "internalType": "bytes32",
          "name": "latestReqId",
          "type": "bytes32"
        }
      ],
      "stateMutability": "view",
      "type": "function"
    },
    {
      "inputs": [],
      "name": "s_lastError",
      "outputs": [
        {
          "internalType": "bytes",
          "name": "",
          "type": "bytes"
        }
      ],
      "stateMutability": "view",
      "type": "function"
    },
    {
      "inputs": [],
      "name": "s_lastResponse",
      "outputs": [
        {
          "internalType": "bytes",
          "name": "",
          "type": "bytes"
        }
      ],
      "stateMutability": "view",
      "type": "function"
    },
    {
      "inputs": [
        {
          "internalType": "uint256",
          "name": "projectId",
          "type": "uint256"
        }
      ],
      "name": "stakeTokensForProject",
      "outputs": [],
      "stateMutability": "payable",
      "type": "function"
    },
    {
      "inputs": [
        {
          "internalType": "address",
          "name": "to",
          "type": "address"
        }
      ],
      "name": "transferOwnership",
      "outputs": [],
      "stateMutability": "nonpayable",
      "type": "function"
    },
    {
      "inputs": [
        {
          "internalType": "uint256",
          "name": "projectId",
          "type": "uint256"
        },
        {
          "internalType": "uint64",
          "name": "_destinationChainSelector",
          "type": "uint64"
        }
      ],
      "name": "transferTokensPayLINK",
      "outputs": [
        {
          "internalType": "bytes32",
          "name": "messageId",
          "type": "bytes32"
        }
      ],
      "stateMutability": "nonpayable",
      "type": "function"
    },
    {
      "inputs": [
        {
          "internalType": "uint64",
          "name": "",
          "type": "uint64"
        }
      ],
      "name": "whitelistedChains",
      "outputs": [
        {
          "internalType": "bool",
          "name": "",
          "type": "bool"
        }
      ],
      "stateMutability": "view",
      "type": "function"
    },
    {
      "inputs": [
        {
          "internalType": "address",
          "name": "_beneficiary",
          "type": "address"
        },
        {
          "internalType": "address",
          "name": "_token",
          "type": "address"
        }
      ],
      "name": "withdrawToken",
      "outputs": [],
      "stateMutability": "nonpayable",
      "type": "function"
    },
    {
      "stateMutability": "payable",
      "type": "receive"
    }
  ],
  "bytecode": "0x60e08060405234620007955762003cd7803803809162000020828562000825565b83398101906101408183031262000795576200003c8162000849565b6200004a6020830162000849565b92620000596040840162000849565b62000067606085016200085e565b90620000766080860162000849565b60a08601519096906001600160401b0381116200079557860184601f82011215620007955784816020620000ad9351910162000873565b60c08701519092906001600160401b038111620007955785620000d2918901620008d7565b60e08801519094906001600160401b038111620007955788019686601f8901121562000795578751966001600160401b03881162000528578760051b98604051986200012260208c018b62000825565b89526020808a019a820101908a838311620007955760208201905b838210620007f457505050505062000168610120620001606101008c016200085e565b9a0162000849565b6001600160a01b03909a166080523315620007af57600080546001600160a01b031916331781556509184e72a00060115560a082905260c085905260405163095ea7b360e01b81526001600160a01b0383811660048301526000196024830152909160209183916044918391908a165af18015620007a3576200075f575b50600b80546001600160a01b03199081166001600160a01b0393841617909155600c8054600d8054909316958416959095179091556001600160e01b031990931693169290921760a09290921b600160a01b600160e01b03169190911790558051906001600160401b0382116200052857819062000266600554620008f7565b601f811162000728575b50602090601f83116001146200069d5760009262000691575b50508160011b916000199060031b1c1916176005555b7f66756e2d706f6c79676f6e2d6d756d6261692d3100000000000000000000000060029081556006805460ff191690911790556009805463ffffffff60401b19166a0493e000000000000000001790558051906001600160401b0382116200052857819062000310600754620008f7565b601f81116200064f575b50602090601f8311600114620005d557600092620005c9575b50508160011b916000199060031b1c1916176007555b51906801000000000000000082116200052857600854826008558083106200053e575b506008600090815260008051602062003cb783398151915292915b828210620003f757600980546001600160401b0319166001600160401b038716179055600e80546001600160a01b0319166001600160a01b03881617905560405161334990816200094e82396080518181816103ac015261202f015260a05181610614015260c051816105b30152f35b80518051906001600160401b0382116200052857620004178654620008f7565b601f8111620004e6575b50602090601f83116001146200047257928260019493602093869560009262000466575b5050600019600383901b1c191690841b1787555b0194019101909262000387565b01519050388062000445565b908660005260206000209160005b601f1985168110620004cd57509260209260019592869583601f19811610620004b3575b505050831b8301875562000459565b015160001960f88460031b161c19169055388080620004a4565b9192602060018192868501518155019401920162000480565b6200051690876000526020600020601f850160051c810191602086106200051d575b601f0160051c019062000934565b3862000421565b909150819062000508565b634e487b7160e01b600052604160045260246000fd5b600860005260008051602062003cb78339815191529081019083015b8181106200056957506200036c565b806200057860019254620008f7565b8062000587575b50016200055a565b601f811183146200059f5750600081555b386200057f565b600090828252620005bf601f60208420920160051c820185830162000934565b8183555562000598565b01519050388062000333565b6007600090815260008051602062003c978339815191529350601f198516905b8181106200063657509084600195949392106200061c575b505050811b0160075562000349565b015160001960f88460031b161c191690553880806200060d565b92936020600181928786015181550195019301620005f5565b60076000526200068a9060008051602062003c97833981519152601f850160051c810191602086106200051d57601f0160051c019062000934565b386200031a565b01519050388062000289565b600560009081527f036b6384b5eca791c62761152d0c79bb0604c104a5fb6f4eb0703f3154bb3db09350601f198516905b8181106200070f5750908460019594939210620006f5575b505050811b016005556200029f565b015160001960f88460031b161c19169055388080620006e6565b92936020600181928786015181550195019301620006ce565b620007589060056000526020600020601f850160051c810191602086106200051d57601f0160051c019062000934565b3862000270565b6020813d6020116200079a575b816200077b6020938362000825565b8101031262000795575180151503620007955738620001e6565b600080fd5b3d91506200076c565b6040513d6000823e3d90fd5b60405162461bcd60e51b815260206004820152601860248201527f43616e6e6f7420736574206f776e657220746f207a65726f00000000000000006044820152606490fd5b81516001600160401b03811162000795576020916200081987848094880101620008d7565b8152019101906200013d565b601f909101601f19168101906001600160401b038211908210176200052857604052565b51906001600160a01b03821682036200079557565b51906001600160401b03821682036200079557565b92906001600160401b038111620005285760405160209190620008a0601f8301601f191684018262000825565b809482825282870111620007955760005b828110620008c55750600093949550010152565b868101518282018501528301620008b1565b9080601f8301121562000795578151620008f49260200162000873565b90565b90600182811c9216801562000929575b60208310146200091357565b634e487b7160e01b600052602260045260246000fd5b91607f169162000907565b81811062000940575050565b600081556001016200093456fe6080604052600436101561001b575b361561001957600080fd5b005b60003560e01c80630bb106eb1461019b5780630ca76175146101965780631007d579146101915780631249c58b1461018c57806317cfd7c114610187578063237427ad146101825780633944ea3a1461017d5780633aeac4e114610178578063403fd15d146101735780634a996b2b1461016e5780634b0795a814610169578063763574f61461016457806379ba50971461015f5780637fa2a27b1461015a578063853d23f4146101555780638da5cb5b146101505780638dbe7b9d1461014b57806392c4592e1461014657806396d3b83d146101415780639bb935c01461013c5780639d86698514610137578063e061646b14610132578063e4b123cb1461012d5763f2fde38b0361000e57611891565b611855565b611746565b61158d565b6112a6565b61124e565b610ddd565b610dbf565b610d96565b610d5f565b610d0c565b610c50565b610c11565b610b33565b610a80565b6109df565b6108e1565b6108ad565b610737565b6106ea565b61051e565b610500565b61035f565b6101d1565b600435906001600160401b03821682036101b657565b600080fd5b602435906001600160401b03821682036101b657565b346101b65760203660031901126101b6576001600160401b036101f26101a0565b166000526015602052602060ff604060002054166040519015158152f35b634e487b7160e01b600052604160045260246000fd5b61018081019081106001600160401b0382111761024257604052565b610210565b604081019081106001600160401b0382111761024257604052565b60a081019081106001600160401b0382111761024257604052565b608081019081106001600160401b0382111761024257604052565b602081019081106001600160401b0382111761024257604052565b90601f801991011681019081106001600160401b0382111761024257604052565b604051906102e182610262565b565b604051906102e182610247565b604051906102e182610226565b6001600160401b03811161024257601f01601f191660200190565b81601f820112156101b65780359061032f826102fd565b9261033d60405194856102b3565b828452602083830101116101b657816000926020809301838601378301015290565b346101b65760603660031901126101b6576001600160401b036024358181116101b657610390903690600401610318565b906044358181116101b6576103a9903690600401610318565b907f00000000000000000000000000000000000000000000000000000000000000006001600160a01b031633036104ee578251908111610242576103f7816103f2600354610763565b6119f4565b602080601f83116001146104635750819061042e94600092610458575b50508160011b916000199060031b1c191617600355612ee2565b6004357f85e1543bf2f84fe80c6badbce3648c8539ad1df4d2b3d822938ca0538be727e6600080a2005b015190503880610414565b60036000529193601f1985167fc2575a0e9e593c00f959f8c92f12db2869c3395a3b0502d05e2516446f71f85b936000905b8282106104d657505091600193918661042e9794106104bd575b505050811b01600355612ee2565b015160001960f88460031b161c191690553880806104af565b80600186978294978701518155019601940190610495565b60405163c6829f8360e01b8152600490fd5b346101b65760003660031901126101b6576020601454604051908152f35b346101b6576000806003193601126106bb57600e54604080516001600160a01b0390921660208084019190915280835261060f929091829190601f199061056590836102b3565b6040516335313c2160e11b84820152336024820152604491820181529061058c90826102b3565b6105946130ac565b9061059d6102d4565b9283528383015260408201526001600160a01b037f00000000000000000000000000000000000000000000000000000000000000001660608201526105e06120b0565b6080820152600c5460a01c6001600160401b03166040516396f4e9f960e01b8152948592839260048401612fcb565b0381867f00000000000000000000000000000000000000000000000000000000000000006001600160a01b03165af180156106b6577f54791b38f3859327992a1ca0590ad3c0f08feba98d1a4f56ab0dca74d203392a92610683928592610689575b50506040519081529081906020820190565b0390a180f35b6106a89250803d106106af575b6106a081836102b3565b810190611fbc565b3880610671565b503d610696565b611fcb565b80fd5b602435906001600160a01b03821682036101b657565b600435906001600160a01b03821682036101b657565b346101b65760403660031901126101b657602061072e6107086106be565b6004356000526012835260406000209060018060a01b0316600052602052604060002090565b54604051908152f35b346101b65760203660031901126101b657600435600052600a6020526020604060002054604051908152f35b90600182811c92168015610793575b602083101461077d57565b634e487b7160e01b600052602260045260246000fd5b91607f1691610772565b60405190600082600354916107b183610763565b8083529260019081811690811561083757506001146107d8575b506102e1925003836102b3565b6003600090815291507fc2575a0e9e593c00f959f8c92f12db2869c3395a3b0502d05e2516446f71f85b5b84831061081c57506102e19350508101602001386107cb565b81935090816020925483858a01015201910190918592610803565b9050602092506102e194915060ff191682840152151560051b820101386107cb565b919082519283825260005b848110610885575050826000602080949584010152601f8019910116010190565b602081830181015184830182015201610864565b9060206108aa928181520190610859565b90565b346101b65760003660031901126101b6576108dd6108c961079d565b604051918291602083526020830190610859565b0390f35b346101b65760403660031901126101b6576108fa6106d4565b6109026106be565b61090a611955565b6040516370a0823160e01b81523060048201526020926001600160a01b039290921691908381602481865afa9081156106b6576000916109c2575b5080156109b05760405163a9059cbb60e01b81526001600160a01b039290921660048301526024820152908290829060449082906000905af180156106b65761098a57005b8161001992903d106109a9575b6109a181836102b3565b810190613097565b503d610997565b604051630686827b60e51b8152600490fd5b6109d99150843d86116106af576106a081836102b3565b38610945565b346101b65760c03660031901126101b65760046001600160401b0381358181116101b657610a109036908401610318565b90610a196106be565b6044358281116101b657610a309036908601610318565b6064358381116101b657610a479036908701610318565b916084358481116101b657610a5f9036908801610318565b9360a4359081116101b65761001996610a7a91369101610318565b94611bb3565b60203660031901126101b657600435610b1e6000918083526013602052600860408420610ae48580808060018060a01b0386541634905af13d15610b2e573d610ac8816102fd565b90610ad660405192836102b3565b81528760203d92013e61322c565b01610af03482546119d0565b9055610b0733916000526012602052604060002090565b9060018060a01b0316600052602052604060002090565b610b293482546119d0565b905580f35b61322c565b346101b6576000806003193601126106bb576040519080600454610b5681610763565b80855291600191808316908115610be75750600114610b8c575b6108dd85610b80818703826102b3565b60405191829182610899565b9250600483527f8a35acfbc15ff81a39ae7d344fd709f28e8600b4aa8c65c6b64bfe7fe36bd19b5b828410610bcf575050508101602001610b80826108dd610b70565b80546020858701810191909152909301928101610bb4565b8695506108dd96935060209250610b8094915060ff191682840152151560051b8201019293610b70565b346101b65760203660031901126101b6576001600160401b03610c326101a0565b16600052600f602052602060ff604060002054166040519015158152f35b346101b6576000806003193601126106bb576001546001600160a01b039081163303610cce5781546001600160a01b0316600080546001600160a01b0319163317905590600180546001600160a01b03191690553391167f8be0079c531659141344cd1fd0a4f28419497f9722a3daafe3b4186f6b6457e08380a380f35b60405162461bcd60e51b815260206004820152601660248201527526bab9ba10313290383937b837b9b2b21037bbb732b960511b6044820152606490fd5b346101b65760203660031901126101b6576004356000526013602052602060406000206009810190600a8254910155610d54610d4661079d565b838082518301019101611fbc565b809155604051908152f35b346101b65760203660031901126101b6576004356000526013602052602060e0610d8c6040600020613266565b0151604051908152f35b346101b65760003660031901126101b6576000546040516001600160a01b039091168152602090f35b346101b65760003660031901126101b6576020600254604051908152f35b346101b6576040806003193601126101b657610df76101bb565b610dff611955565b6001600160401b038116916000928084526020926015845260ff83862054161561122d57600490610e3b82356000526013602052604060002090565b90610e4f6009830154600a840154906124a5565b90610e5d60115480936125bb565b508254610ea1906001600160a01b0316600d546001600160a01b0316600c54909490610e99906001600160a01b03165b6001600160a01b031690565b94859261310e565b600b54610eb6906001600160a01b0316610e8d565b87516320487ded60e01b81529590898780610ed48688838801612fcb565b0381845afa9687156106b6578b9761120e575b5088516370a0823160e01b808252308483019081529091908c908290819060200103818a5afa9081156106b6578d916111f1575b5088116111675750885163095ea7b360e01b8082526001600160a01b039092168382019081526020810189905290958b9187919082908f90829060400103925af19081156106b657610fc8958b9261114a575b50600d54610f8690610e8d906001600160a01b031681565b600b54610f9b906001600160a01b0316610e8d565b8d601154938d51998a9586948593845289840160209093929193604081019460018060a01b031681520152565b03925af19283156106b657611011948a9461112d575b50600b548b90610ff6906001600160a01b0316610e8d565b928a51968795869485936396f4e9f960e01b85528401612fcb565b03925af19586156106b6576108dd97966110e4575b505084916110707fc15fb748c32ba4eb29c1c311e78533f93b4425eab49ea87c6fe4279ecadca04392601154611061600783019182546119d0565b9055546001600160a01b031690565b600d546110d3906001600160a01b0316601154600c5491949161109b906001600160a01b0316610e8d565b89516001600160a01b0395861681529585166020870152604086019190915290921660608401526080830191909152819060a0820190565b0390a3519081529081906020820190565b61107096507fc15fb748c32ba4eb29c1c311e78533f93b4425eab49ea87c6fe4279ecadca0439293918161112392903d106106af576106a081836102b3565b9581939250611026565b61114390853d87116109a9576109a181836102b3565b5038610fde565b61116090833d85116109a9576109a181836102b3565b5038610f6e565b8b83898c898f8087845193849182528180611193308b8301919091602081019260018060a01b03169052565b03915afa9586156106b657956111ca575b505051634787a10360e11b815291820192835260208301529081906040010390fd5b0390fd5b6111c69392955090816111e892903d106106af576106a081836102b3565b939091856111a4565b61120891508c8d3d106106af576106a081836102b3565b38610f1b565b6112269197508a3d8c116106af576106a081836102b3565b9538610ee7565b506024915190630a503cdb60e01b82526004820152fd5b801515036101b657565b346101b65760403660031901126101b6576112676101a0565b6001600160401b036024359161127c83611244565b611284611955565b16600052601560205260406000209060ff801983541691151516179055600080f35b346101b65760203660031901126101b6576108dd600b6112d26004356000526013602052604060002090565b6113896113686112e0611d44565b6112ec60038501611454565b6112f582611d91565b526112ff81611d91565b5061130c60048501611454565b61131582611da3565b5261131f81611da3565b5061132c60058501611454565b61133582611db3565b5261133f81611db3565b5061135261134b611dd7565b91826123fe565b61136361135d6113bb565b826123d5565b612202565b600954600254916001600160401b0363ffffffff8360401c16921690611fd7565b91816113a984936113a4856000526010602052604060002090565b611f06565b01556040519081529081906020820190565b60405190600082600554916113cf83610763565b8083529260019081811690811561083757506001146113f557506102e1925003836102b3565b6005600090815291507f036b6384b5eca791c62761152d0c79bb0604c104a5fb6f4eb0703f3154bb3db05b84831061143957506102e19350508101602001386107cb565b81935090816020925483858a01015201910190918592611420565b906040519182600082549261146884610763565b9081845260019485811690816000146114d55750600114611492575b50506102e1925003836102b3565b9093915060005260209081600020936000915b8183106114bd5750506102e193508201013880611484565b855488840185015294850194879450918301916114a5565b9150506102e194506020925060ff191682840152151560051b8201013880611484565b989591946115478a999e9d9c996101609c99966115639660406115376115719b6115559860018060a01b03168652610180806020880152860190610859565b9301528c820360608e0152610859565b908a820360808c0152610859565b9088820360a08a0152610859565b9086820360c0880152610859565b9760e08501526101008401526101208301526101408201520152565b346101b65760203660031901126101b657600435600090815260106020526040902080546001600160a01b03166108dd6115c960018401611454565b926002810154906115dc60038201611454565b6115e860048301611454565b6115f460058401611454565b61160060068501611454565b600785015491600886015493600987015495600b600a890154980154986040519c8d9c8d6114f8565b602080820190808352835180925260409283810182858560051b8401019601946000925b85841061165e575050505050505090565b909192939495968580600192603f198582030187528a519061168881835160018060a01b03169052565b6116ff6116ec6116d96116c66116ab87870151610180808a890152870190610859565b8b8701518c8701526060808801519087830390880152610859565b6080808701519086830390870152610859565b60a0808601519085830390860152610859565b60c0808501519084830390850152610859565b9160e080820151908301526101008082015190830152610120808201519083015261014080820151908301526101608091015191015299019401940192959493919061164d565b346101b6576000806003193601126106bb576014549061176582611d2d565b90604090611775825193846102b3565b838352601f1961178485611d2d565b0190805b8281106117f35750505060015b838111156117aa578151806108dd8582611629565b806117e86117c56117ee936000526013602052604060002090565b6117d76117d184612487565b91613266565b6117e18288611dc3565b5285611dc3565b50612180565b611795565b602090845161180181610226565b838152606083908082840152858884015280808401528060808401528060a084015260c08301528460e083015284610100830152846101208301528461014083015284610160830152828801015201611788565b346101b65760203660031901126101b657600435600090815260136020526040902080546001600160a01b03166108dd6115c960018401611454565b346101b65760203660031901126101b6576118aa6106d4565b6118b2611955565b6001600160a01b031633811461191057600180546001600160a01b031916821790556000546118e9906001600160a01b0316610e8d565b7fed8889f560326eb138920d842192f0eb3dd22b4f139c87a2c57538e05bae1278600080a3005b60405162461bcd60e51b815260206004820152601760248201527f43616e6e6f74207472616e7366657220746f2073656c660000000000000000006044820152606490fd5b6000546001600160a01b0316330361196957565b60405162461bcd60e51b815260206004820152601660248201527527b7363c9031b0b63630b1363290313c9037bbb732b960511b6044820152606490fd5b634e487b7160e01b600052601160045260246000fd5b90602082018092116119cb57565b6119a7565b919082018092116119cb57565b8181106119e8575050565b600081556001016119dd565b90601f8211611a01575050565b6102e19160036000527fc2575a0e9e593c00f959f8c92f12db2869c3395a3b0502d05e2516446f71f85b906020601f840160051c83019310611a4b575b601f0160051c01906119dd565b9091508190611a3e565b90601f8211611a62575050565b6102e19160046000527f8a35acfbc15ff81a39ae7d344fd709f28e8600b4aa8c65c6b64bfe7fe36bd19b906020601f840160051c83019310611a4b57601f0160051c01906119dd565b9190601f8111611aba57505050565b6102e1926000526020600020906020601f840160051c83019310611a4b57601f0160051c01906119dd565b91909182516001600160401b03811161024257611b0c81611b068454610763565b84611aab565b602080601f8311600114611b48575081929394600092611b3d575b50508160011b916000199060031b1c1916179055565b015190503880611b27565b90601f19831695611b5e85600052602060002090565b926000905b888210611b9b57505083600195969710611b82575b505050811b019055565b015160001960f88460031b161c19169055388080611b78565b80600185968294968601518155019501930190611b63565b9290949391601454956001948588018098116119cb578760005260209060138252604060002096896002890155808801928251926001600160401b03841161024257611c0984611c038754610763565b87611aab565b81601f8511600114611ca0575095611c6f611c8a966102e19d9c9a968680611c8198611c909f9c98611c789860069f9a600094611c95575b50501b916000199060031b1c19161790555b88546001600160a01b0319166001600160a01b03909116178855565b60038701611ae5565b60048501611ae5565b60058301611ae5565b01611ae5565b601455565b015192503880611c41565b9190601f949394198416611cb987600052602060002090565b936000905b828210611d16575050966102e19d9c9a96611c819686611c7896611c909f9c96611c6f9660069f9a611c8a9e10611cfd575b505050811b019055611c53565b015160001960f88460031b161c19169055388080611cf0565b808886978294978701518155019601940190611cbe565b6001600160401b0381116102425760051b60200190565b60405190611d518261027d565b60038252819060005b606080821015611d74579060209182828701015201611d5a565b5050909150565b634e487b7160e01b600052603260045260246000fd5b805115611d9e5760200190565b611d7b565b805160011015611d9e5760400190565b805160021015611d9e5760600190565b8051821015611d9e5760209160051b010190565b6040519060e082018281106001600160401b0382111761024257604052606060c08360008152600060208201526000604082015282808201528260808201528260a08201520152565b919091828114611f0157611e348354610763565b6001600160401b03811161024257611e5081611b068454610763565b600093601f8211600114611e8b579381929394600092611e805750508160011b916000199060031b1c1916179055565b015490503880611b27565b611e9f601f19831691600052602060002090565b94611eaf84600052602060002090565b91815b818110611ee957509583600195969710611ed057505050811b019055565b015460001960f88460031b161c19169055388080611b78565b87830154845560019384019390920191602001611eb2565b509050565b90808203611f12575050565b805482546001600160a01b0319166001600160a01b03909116178255600b908190611f436001820160018601611e20565b60028101546002850155611f5d6003820160038601611e20565b611f6d6004820160048601611e20565b611f7d6005820160058601611e20565b611f8d6006820160068601611e20565b600781015460078501556008810154600885015560098101546009850155600a810154600a8501550154910155565b908160209103126101b6575190565b6040513d6000823e3d90fd5b92906020926001600160401b039263ffffffff612016604051978896879663230e93b160e11b885216600487015260a0602487015260a4860190610859565b60016044860152921660648401526084830152038160007f00000000000000000000000000000000000000000000000000000000000000006001600160a01b03165af19081156106b657600091612092575b50807f1131472297a800fee664d1d89cfa8f7676ff07189ecc53f80bbb5f4969099db8600080a290565b6120aa915060203d81116106af576106a081836102b3565b38612068565b604051906120bd82610298565b60008252565b604051906120d082610247565b600c82526b31b7b232a637b1b0ba34b7b760a11b6020830152565b634e487b7160e01b600052602160045260246000fd5b6003111561210b57565b6120eb565b6040519061211d82610247565b60088252676c616e677561676560c01b6020830152565b6001111561210b57565b6040519061214b82610247565b6006825265736f7572636560d01b6020830152565b6040519061216d82610247565b60048252636172677360e01b6020830152565b60001981146119cb5760010190565b6040519061219c82610247565b600f82526e39b2b1b932ba39a637b1b0ba34b7b760891b6020830152565b604051906121c782610247565b60078252667365637265747360c81b6020830152565b604051906121ea82610247565b600982526862797465734172677360b81b6020830152565b61220a612437565b9061221c6122166120c3565b83612ba3565b612239815161222a81612101565b61223381612101565b83612504565b612244612216612110565b61225e604082015161225581612134565b61223381612134565b61226961221661213e565b612277606082015183612ba3565b60a0810180515161237c575b5060808101908151516122fc575b60c09150018051516122a4575b50515190565b916122b06122166121dd565b6122b982612c27565b60005b835180518210156122e957906122df6122d8826122e494611dc3565b5185612aee565b612180565b6122bc565b505091506122f681612cb3565b3861229e565b60208101805161230b81612101565b61231481612101565b1561236a5760c09261234d6123659261233461232e61218f565b88612ba3565b5161233e81612101565b61234781612101565b86612504565b61235e6123586121ba565b86612ba3565b5184612aee565b612291565b60405163a80d31f760e01b8152600490fd5b9261238e612388612160565b84612ba3565b61239783612c27565b60005b845180518210156123c257906122df6123b6826123bd94611dc3565b5186612ba3565b61239a565b505092506123cf82612cb3565b38612283565b8151156123ec576000808252604082015260600152565b6040516322ce3edd60e01b8152600490fd5b81511561240b5760a00152565b60405163fe936cb760e01b8152600490fd5b6040519061242a82610247565b6000602083606081520152565b60405161244381610247565b61244b61241d565b808252602082016000815261245e61241d565b5061010060208301526040518092526000825261012082019182106101b6576000916040525290565b6000198101919082116119cb57565b601f198101919082116119cb57565b919082039182116119cb57565b906124bb61241d565b50601f8116806124ea575b50806020830152604051908183526000825281016020019081106101b65760405290565b602003602081116119cb5781018091116119cb57386124c6565b9081519161251061241d565b5082515160018101908181116119cb576020850151811015612569575b60c260206102e19651928301015380518211612561575b50506040519160208301526020825261255c82610247565b612aee565b523880612544565b8160011b94828604600214831517156119cb5760208161259b6102e19861259460c2955191846124b2565b5082612a36565b509650505061252d565b908160011b91808304600214901517156119cb57565b818102929181159184041417156119cb57565b6125d661241d565b5080515160018101908181116119cb57602083015181101561260f575b605b6020845192830101538051821161260b57505090565b5290565b8160011b828104600214831517156119cb5761263890612631855191866124b2565b5084612a36565b506125f3565b61264661241d565b5080515160018101908181116119cb57602083015181101561267b575b605a6020845192830101538051821161260b57505090565b8160011b828104600214831517156119cb5761269d90612631855191866124b2565b50612663565b6126ab61241d565b5080515160018101908181116119cb5760208301518110156126e0575b60596020845192830101538051821161260b57505090565b8160011b828104600214831517156119cb5761270290612631855191866124b2565b506126c8565b61271061241d565b5080515160018101908181116119cb576020830151811015612745575b60586020845192830101538051821161260b57505090565b8160011b828104600214831517156119cb5761276790612631855191866124b2565b5061272d565b61277561241d565b5080515160018101908181116119cb5760208301518110156127aa575b607b6020845192830101538051821161260b57505090565b8160011b828104600214831517156119cb576127cc90612631855191866124b2565b50612792565b6127da61241d565b5080515160018101908181116119cb57602083015181101561280f575b607a6020845192830101538051821161260b57505090565b8160011b828104600214831517156119cb5761283190612631855191866124b2565b506127f7565b61283f61241d565b5080515160018101908181116119cb576020830151811015612874575b60796020845192830101538051821161260b57505090565b8160011b828104600214831517156119cb5761289690612631855191866124b2565b5061285c565b6128a461241d565b5080515160018101908181116119cb5760208301518110156128d9575b60786020845192830101538051821161260b57505090565b8160011b828104600214831517156119cb576128fb90612631855191866124b2565b506128c1565b9061290a61241d565b5081515160018101918282116119cb57602084015182101561293d575b6020845192830101538051821161260b57505090565b8260011b838104600214841517156119cb576129669061295f865191876124b2565b5085612a36565b50612927565b90612979825191836124b2565b5061298261241d565b5080519061298e61241d565b5061299c8151831115612ae7565b825151926129aa83856119d0565b916020928284809401518211612a1f575b5183815197820101968211612a17575b505001915b818110156129f15760001991036101000a0190811990511690825116179052565b9192612a0c612a06612a1292865181526119bd565b946119bd565b92612496565b6129d0565b5238806129cb565b612a31612a2b836125a5565b8261296c565b6129bb565b90612a3f61241d565b508051612a4a61241d565b50612a588251821115612ae7565b82515191612a6682846119d0565b6020918291828701518111612ad0575b865183815197820101968211612ac8575b505001915b81811015612aae5760001991036101000a019081199051169082511617905290565b9192612a0c612a06612ac392865181526119bd565b612a8c565b523880612a87565b612ae2612adc826125a5565b8861296c565b612a76565b156101b657565b8151612b259291906001600160401b0381169060178211612b2857612b1d9150604060ff845192161790612901565b505b51612a36565b50565b5060ff8111612b4d57612b4790612b3f8351612708565b508251612e7c565b50612b1f565b61ffff8111612b6c57612b4790612b6483516126a3565b508251612e15565b63ffffffff8111612b8d57612b4790612b85835161263e565b508251612dac565b612b4790612b9b83516125ce565b508251612d40565b8151612b259291906001600160401b0381169060178211612bd257612b1d9150606060ff845192161790612901565b5060ff8111612be957612b4790612b3f835161289c565b61ffff8111612c0057612b4790612b648351612837565b63ffffffff8111612c1957612b4790612b8583516127d2565b612b4790612b9b835161276d565b805190612c3261241d565b5081515160018101908181116119cb576020840151811015612c80575b609f6020809551928301015380518211612c78575b505001805190600182018092116119cb5752565b523880612c64565b8160011b93828504600214831517156119cb57602081612ca98297612594609f955191846124b2565b5095505050612c4f565b805190612cbe61241d565b5081515160018101908181116119cb576020840151811015612d0d575b60ff6020809551928301015380518211612d05575b50500180516000198101919082116119cb5752565b523880612cf0565b8160011b93828504600214831517156119cb57602081612d36829761259460ff955191846124b2565b5095505050612cdb565b90612d4961241d565b508151518060080191826008116119cb5760208401518311612d8b575b6008845192830101906001600160401b03198251161790528051821161260b57505090565b8260011b838104600214841517156119cb57612da7908561296c565b612d66565b90612db561241d565b508151518060040191826004116119cb5760208401518311612df4575b60048451928301019063ffffffff198251161790528051821161260b57505090565b8260011b838104600214841517156119cb57612e10908561296c565b612dd2565b90612e1e61241d565b508151518060020191826002116119cb5760208401518311612e5b575b60028451928301019061ffff198251161790528051821161260b57505090565b8260011b838104600214841517156119cb57612e77908561296c565b612e3b565b90612e8561241d565b508151518060010191826001116119cb5760208401518311612ec1575b60018451928301019060ff198251161790528051821161260b57505090565b8260011b838104600214841517156119cb57612edd908561296c565b612ea2565b9081516001600160401b03811161024257612f0781612f02600454610763565b611a55565b602080601f8311600114612f435750819293600092612f38575b50508160011b916000199060031b1c191617600455565b015190503880612f21565b90601f19831694612f7660046000527f8a35acfbc15ff81a39ae7d344fd709f28e8600b4aa8c65c6b64bfe7fe36bd19b90565b926000905b878210612fb3575050836001959610612f9a575b505050811b01600455565b015160001960f88460031b161c19169055388080612f8f565b80600185968294968601518155019501930190612f7b565b906001600160401b039093929316815260406020918183820152612ffa855160a08484015260e0830190610859565b916130168487015193603f199485858303016060860152610859565b8187015194848483030160808501528080875193848152019601926000905b83821061306e5750505060608701516001600160a01b031660a08401525093946108aa945060c090608001519282850301910152610859565b845180516001600160a01b03168952830151888401529687019693820193600190910190613035565b908160209103126101b657516108aa81611244565b6040516130b881610298565b6000815290565b6040908151916130ce83610247565b600183528291600091825b602080821015613105578251602092916130f282610247565b86825286818301528289010152016130d9565b50505091925050565b9260806131ab61319d956131f59460405161312881610262565b6060948186809352826020820152826040820152600083820152015261314c6130bf565b966131676131586102e3565b6001600160a01b039093168352565b602082015261317587611d91565b5261317f86611d91565b50604080516001600160a01b03909216602083015290968791820190565b03601f1981018752866102b3565b6131c66131b66102e3565b60008152600060208201526131fd565b936131cf6102d4565b9586526131da6120b0565b602087015260408601526001600160a01b0390911690840152565b608082015290565b6020604051916397a657c960e01b8284015280516024840152015115156044820152604481526108aa8161027d565b1561323357565b60405162461bcd60e51b815260206004820152600b60248201526a10d85b1b0819985a5b195960aa1b6044820152606490fd5b90600b6132716102f0565b83546001600160a01b031681529261328b60018201611454565b6020850152600281015460408501526132a660038201611454565b60608501526132b760048201611454565b60808501526132c860058201611454565b60a08501526132d960068201611454565b60c0850152600781015460e085015260088101546101008501526009810154610120850152600a810154610140850152015461016083015256fea26469706673582212204634dc1688972014dc201a502d2544e89401bc85cb26439234dd0be9c080b8ff64736f6c63430008130033a66cc928b5edb82af9bd49922954155ab7b0942694bea4ce44661d9a8736c688f3f7a9fe364faab93b216da50a3214154f22a0a2b415b23a84c8169e8b636ee3",
  "linkReferences": {},
  "deployedLinkReferences": {}
}