{
  "_format": "hh-sol-artifact-1",
  "contractName": "EcoFilend",
  "sourceName": "contracts/EcoFilend.sol",
  "abi": [
    {
      "inputs": [
        {
          "internalType": "address",
          "name": "_router",
          "type": "address"
        },
        {
          "internalType": "address",
          "name": "_link",
          "type": "address"
        },
        {
          "internalType": "address",
          "name": "_token",
          "type": "address"
        },
        {
          "internalType": "uint64",
          "name": "_destinationChainSelector",
          "type": "uint64"
        },
        {
          "internalType": "address",
          "name": "f_router",
          "type": "address"
        },
        {
          "internalType": "string",
          "name": "_source",
          "type": "string"
        },
        {
          "internalType": "bytes",
          "name": "_encryptedSecretsReference",
          "type": "bytes"
        },
        {
          "internalType": "bytes[]",
          "name": "_bytesArgs",
          "type": "bytes[]"
        },
        {
          "internalType": "uint64",
          "name": "_subscriptionId",
          "type": "uint64"
        },
        {
          "internalType": "address",
          "name": "_stakeCertMinter",
          "type": "address"
        }
      ],
      "stateMutability": "nonpayable",
      "type": "constructor"
    },
    {
      "inputs": [
        {
          "internalType": "uint64",
          "name": "destinationChainSelector",
          "type": "uint64"
        }
      ],
      "name": "DestinationChainNotAllowlisted",
      "type": "error"
    },
    {
      "inputs": [
        {
          "internalType": "uint64",
          "name": "destinationChainSelector",
          "type": "uint64"
        }
      ],
      "name": "DestinationChainNotWhitelisted",
      "type": "error"
    },
    {
      "inputs": [],
      "name": "EmptyArgs",
      "type": "error"
    },
    {
      "inputs": [],
      "name": "EmptySource",
      "type": "error"
    },
    {
      "inputs": [],
      "name": "NoInlineSecrets",
      "type": "error"
    },
    {
      "inputs": [
        {
          "internalType": "uint256",
          "name": "currentBalance",
          "type": "uint256"
        },
        {
          "internalType": "uint256",
          "name": "calculatedFees",
          "type": "uint256"
        }
      ],
      "name": "NotEnoughBalance",
      "type": "error"
    },
    {
      "inputs": [],
      "name": "NothingToWithdraw",
      "type": "error"
    },
    {
      "inputs": [],
      "name": "OnlyRouterCanFulfill",
      "type": "error"
    },
    {
      "anonymous": false,
      "inputs": [
        {
          "indexed": false,
          "internalType": "bytes32",
          "name": "messageId",
          "type": "bytes32"
        }
      ],
      "name": "MessageSent",
      "type": "event"
    },
    {
      "anonymous": false,
      "inputs": [
        {
          "indexed": true,
          "internalType": "address",
          "name": "from",
          "type": "address"
        },
        {
          "indexed": true,
          "internalType": "address",
          "name": "to",
          "type": "address"
        }
      ],
      "name": "OwnershipTransferRequested",
      "type": "event"
    },
    {
      "anonymous": false,
      "inputs": [
        {
          "indexed": true,
          "internalType": "address",
          "name": "from",
          "type": "address"
        },
        {
          "indexed": true,
          "internalType": "address",
          "name": "to",
          "type": "address"
        }
      ],
      "name": "OwnershipTransferred",
      "type": "event"
    },
    {
      "anonymous": false,
      "inputs": [
        {
          "indexed": true,
          "internalType": "bytes32",
          "name": "id",
          "type": "bytes32"
        }
      ],
      "name": "RequestFulfilled",
      "type": "event"
    },
    {
      "anonymous": false,
      "inputs": [
        {
          "indexed": true,
          "internalType": "bytes32",
          "name": "id",
          "type": "bytes32"
        }
      ],
      "name": "RequestSent",
      "type": "event"
    },
    {
      "anonymous": false,
      "inputs": [
        {
          "indexed": true,
          "internalType": "bytes32",
          "name": "messageId",
          "type": "bytes32"
        },
        {
          "indexed": true,
          "internalType": "uint64",
          "name": "destinationChainSelector",
          "type": "uint64"
        },
        {
          "indexed": false,
          "internalType": "address",
          "name": "receiver",
          "type": "address"
        },
        {
          "indexed": false,
          "internalType": "address",
          "name": "token",
          "type": "address"
        },
        {
          "indexed": false,
          "internalType": "uint256",
          "name": "tokenAmount",
          "type": "uint256"
        },
        {
          "indexed": false,
          "internalType": "address",
          "name": "feeToken",
          "type": "address"
        },
        {
          "indexed": false,
          "internalType": "uint256",
          "name": "fees",
          "type": "uint256"
        }
      ],
      "name": "TokensTransferred",
      "type": "event"
    },
    {
      "anonymous": false,
      "inputs": [
        {
          "indexed": false,
          "internalType": "string",
          "name": "project",
          "type": "string"
        }
      ],
      "name": "grantSuccess",
      "type": "event"
    },
    {
      "inputs": [
        {
          "internalType": "uint256",
          "name": "projectId",
          "type": "uint256"
        }
      ],
      "name": "_processResponse",
      "outputs": [
        {
          "internalType": "uint256",
          "name": "index",
          "type": "uint256"
        }
      ],
      "stateMutability": "nonpayable",
      "type": "function"
    },
    {
      "inputs": [
        {
          "internalType": "uint256",
          "name": "_projectId",
          "type": "uint256"
        }
      ],
      "name": "_sendRequest",
      "outputs": [
        {
          "internalType": "bytes32",
          "name": "requestId",
          "type": "bytes32"
        }
      ],
      "stateMutability": "nonpayable",
      "type": "function"
    },
    {
      "inputs": [],
      "name": "acceptOwnership",
      "outputs": [],
      "stateMutability": "nonpayable",
      "type": "function"
    },
    {
      "inputs": [
        {
          "internalType": "uint64",
          "name": "_destinationChainSelector",
          "type": "uint64"
        },
        {
          "internalType": "bool",
          "name": "allowed",
          "type": "bool"
        }
      ],
      "name": "allowlistDestinationChain",
      "outputs": [],
      "stateMutability": "nonpayable",
      "type": "function"
    },
    {
      "inputs": [
        {
          "internalType": "uint64",
          "name": "",
          "type": "uint64"
        }
      ],
      "name": "allowlistedChains",
      "outputs": [
        {
          "internalType": "bool",
          "name": "",
          "type": "bool"
        }
      ],
      "stateMutability": "view",
      "type": "function"
    },
    {
      "inputs": [],
      "name": "donId",
      "outputs": [
        {
          "internalType": "bytes32",
          "name": "",
          "type": "bytes32"
        }
      ],
      "stateMutability": "view",
      "type": "function"
    },
    {
      "inputs": [],
      "name": "getReceivers",
      "outputs": [
        {
          "components": [
            {
              "internalType": "address",
              "name": "owner",
              "type": "address"
            },
            {
              "internalType": "string",
              "name": "name",
              "type": "string"
            },
            {
              "internalType": "uint256",
              "name": "projectId",
              "type": "uint256"
            },
            {
              "internalType": "string",
              "name": "city",
              "type": "string"
            },
            {
              "internalType": "string",
              "name": "state",
              "type": "string"
            },
            {
              "internalType": "string",
              "name": "country",
              "type": "string"
            },
            {
              "internalType": "string",
              "name": "image",
              "type": "string"
            },
            {
              "internalType": "uint256",
              "name": "totalReceived",
              "type": "uint256"
            },
            {
              "internalType": "uint256",
              "name": "stakePower",
              "type": "uint256"
            },
            {
              "internalType": "uint256",
              "name": "pollutionIndex",
              "type": "uint256"
            },
            {
              "internalType": "uint256",
              "name": "oldpollutionIndex",
              "type": "uint256"
            },
            {
              "internalType": "bytes32",
              "name": "latestReqId",
              "type": "bytes32"
            }
          ],
          "internalType": "struct EcoFilend.GrantReceiver[]",
          "name": "",
          "type": "tuple[]"
        }
      ],
      "stateMutability": "view",
      "type": "function"
    },
    {
      "inputs": [
        {
          "internalType": "uint256",
          "name": "_id",
          "type": "uint256"
        }
      ],
      "name": "getTotalReceived",
      "outputs": [
        {
          "internalType": "uint256",
          "name": "",
          "type": "uint256"
        }
      ],
      "stateMutability": "view",
      "type": "function"
    },
    {
      "inputs": [
        {
          "internalType": "uint256",
          "name": "",
          "type": "uint256"
        }
      ],
      "name": "grantreceiversdisplay",
      "outputs": [
        {
          "internalType": "address",
          "name": "owner",
          "type": "address"
        },
        {
          "internalType": "string",
          "name": "name",
          "type": "string"
        },
        {
          "internalType": "uint256",
          "name": "projectId",
          "type": "uint256"
        },
        {
          "internalType": "string",
          "name": "city",
          "type": "string"
        },
        {
          "internalType": "string",
          "name": "state",
          "type": "string"
        },
        {
          "internalType": "string",
          "name": "country",
          "type": "string"
        },
        {
          "internalType": "string",
          "name": "image",
          "type": "string"
        },
        {
          "internalType": "uint256",
          "name": "totalReceived",
          "type": "uint256"
        },
        {
          "internalType": "uint256",
          "name": "stakePower",
          "type": "uint256"
        },
        {
          "internalType": "uint256",
          "name": "pollutionIndex",
          "type": "uint256"
        },
        {
          "internalType": "uint256",
          "name": "oldpollutionIndex",
          "type": "uint256"
        },
        {
          "internalType": "bytes32",
          "name": "latestReqId",
          "type": "bytes32"
        }
      ],
      "stateMutability": "view",
      "type": "function"
    },
    {
      "inputs": [
        {
          "internalType": "bytes32",
          "name": "requestId",
          "type": "bytes32"
        },
        {
          "internalType": "bytes",
          "name": "response",
          "type": "bytes"
        },
        {
          "internalType": "bytes",
          "name": "err",
          "type": "bytes"
        }
      ],
      "name": "handleOracleFulfillment",
      "outputs": [],
      "stateMutability": "nonpayable",
      "type": "function"
    },
    {
      "inputs": [
        {
          "internalType": "uint256",
          "name": "projectId",
          "type": "uint256"
        }
      ],
      "name": "mint",
      "outputs": [],
      "stateMutability": "nonpayable",
      "type": "function"
    },
    {
      "inputs": [],
      "name": "numberOfReceivers",
      "outputs": [
        {
          "internalType": "uint256",
          "name": "",
          "type": "uint256"
        }
      ],
      "stateMutability": "view",
      "type": "function"
    },
    {
      "inputs": [],
      "name": "owner",
      "outputs": [
        {
          "internalType": "address",
          "name": "",
          "type": "address"
        }
      ],
      "stateMutability": "view",
      "type": "function"
    },
    {
      "inputs": [
        {
          "internalType": "uint256",
          "name": "",
          "type": "uint256"
        },
        {
          "internalType": "address",
          "name": "",
          "type": "address"
        }
      ],
      "name": "projectStakes",
      "outputs": [
        {
          "internalType": "uint256",
          "name": "",
          "type": "uint256"
        }
      ],
      "stateMutability": "view",
      "type": "function"
    },
    {
      "inputs": [
        {
          "internalType": "uint256",
          "name": "",
          "type": "uint256"
        }
      ],
      "name": "projectToResponse",
      "outputs": [
        {
          "internalType": "bytes32",
          "name": "",
          "type": "bytes32"
        }
      ],
      "stateMutability": "view",
      "type": "function"
    },
    {
      "inputs": [
        {
          "internalType": "string",
          "name": "_name",
          "type": "string"
        },
        {
          "internalType": "address",
          "name": "_receiveraddress",
          "type": "address"
        },
        {
          "internalType": "string",
          "name": "_city",
          "type": "string"
        },
        {
          "internalType": "string",
          "name": "_state",
          "type": "string"
        },
        {
          "internalType": "string",
          "name": "_country",
          "type": "string"
        },
        {
          "internalType": "string",
          "name": "_image",
          "type": "string"
        }
      ],
      "name": "register",
      "outputs": [],
      "stateMutability": "nonpayable",
      "type": "function"
    },
    {
      "inputs": [
        {
          "internalType": "bytes32",
          "name": "",
          "type": "bytes32"
        }
      ],
      "name": "requests",
      "outputs": [
        {
          "internalType": "address",
          "name": "owner",
          "type": "address"
        },
        {
          "internalType": "string",
          "name": "name",
          "type": "string"
        },
        {
          "internalType": "uint256",
          "name": "projectId",
          "type": "uint256"
        },
        {
          "internalType": "string",
          "name": "city",
          "type": "string"
        },
        {
          "internalType": "string",
          "name": "state",
          "type": "string"
        },
        {
          "internalType": "string",
          "name": "country",
          "type": "string"
        },
        {
          "internalType": "string",
          "name": "image",
          "type": "string"
        },
        {
          "internalType": "uint256",
          "name": "totalReceived",
          "type": "uint256"
        },
        {
          "internalType": "uint256",
          "name": "stakePower",
          "type": "uint256"
        },
        {
          "internalType": "uint256",
          "name": "pollutionIndex",
          "type": "uint256"
        },
        {
          "internalType": "uint256",
          "name": "oldpollutionIndex",
          "type": "uint256"
        },
        {
          "internalType": "bytes32",
          "name": "latestReqId",
          "type": "bytes32"
        }
      ],
      "stateMutability": "view",
      "type": "function"
    },
    {
      "inputs": [],
      "name": "s_lastError",
      "outputs": [
        {
          "internalType": "bytes",
          "name": "",
          "type": "bytes"
        }
      ],
      "stateMutability": "view",
      "type": "function"
    },
    {
      "inputs": [],
      "name": "s_lastResponse",
      "outputs": [
        {
          "internalType": "bytes",
          "name": "",
          "type": "bytes"
        }
      ],
      "stateMutability": "view",
      "type": "function"
    },
    {
      "inputs": [
        {
          "internalType": "uint256",
          "name": "projectId",
          "type": "uint256"
        }
      ],
      "name": "stakeTokensForProject",
      "outputs": [],
      "stateMutability": "payable",
      "type": "function"
    },
    {
      "inputs": [
        {
          "internalType": "address",
          "name": "to",
          "type": "address"
        }
      ],
      "name": "transferOwnership",
      "outputs": [],
      "stateMutability": "nonpayable",
      "type": "function"
    },
    {
      "inputs": [
        {
          "internalType": "uint256",
          "name": "projectId",
          "type": "uint256"
        },
        {
          "internalType": "uint64",
          "name": "_destinationChainSelector",
          "type": "uint64"
        }
      ],
      "name": "transferTokensPayLINK",
      "outputs": [
        {
          "internalType": "bytes32",
          "name": "messageId",
          "type": "bytes32"
        }
      ],
      "stateMutability": "nonpayable",
      "type": "function"
    },
    {
      "inputs": [
        {
          "internalType": "uint64",
          "name": "",
          "type": "uint64"
        }
      ],
      "name": "whitelistedChains",
      "outputs": [
        {
          "internalType": "bool",
          "name": "",
          "type": "bool"
        }
      ],
      "stateMutability": "view",
      "type": "function"
    },
    {
      "inputs": [
        {
          "internalType": "address",
          "name": "_beneficiary",
          "type": "address"
        },
        {
          "internalType": "address",
          "name": "_token",
          "type": "address"
        }
      ],
      "name": "withdrawToken",
      "outputs": [],
      "stateMutability": "nonpayable",
      "type": "function"
    },
    {
      "stateMutability": "payable",
      "type": "receive"
    }
  ],
  "bytecode": "0x60a08060405234620007995762003d2f803803809162000020828562000829565b83398101906101408183031262000799576200003c816200084d565b916200004b602083016200084d565b926200005a604084016200084d565b620000686060850162000862565b9062000077608086016200084d565b60a08601519096906001600160401b0381116200079957860185601f82011215620007995785816020620000ae9351910162000877565b60c08701519092906001600160401b038111620007995786620000d3918901620008db565b60e08801519094906001600160401b038111620007995788019587601f8801121562000799578651976001600160401b0389116200052c57604051978960051b996200012360208c018b62000829565b89526020808a019a820101908a838311620007995760208201905b838210620007f857505050505062000169610120620001616101008c0162000862565b9a016200084d565b6001600160a01b03909a166080523315620007b357600080546001600160a01b0319908116331782556509184e72a000601355600b805482166001600160a01b03858116918217909255600c805490931691881691821790925560405163095ea7b360e01b815260048101929092526000196024830152909160209183916044918391905af18015620007a75762000763575b50600d80546001600160a01b03199081166001600160a01b0393841617909155600e8054600f8054909316958416959095179091556001600160e01b031990931693169290921760a09290921b600160a01b600160e01b03169190911790558051906001600160401b0382116200052c5781906200027c600554620008fb565b601f81116200072c575b50602090601f8311600114620006a15760009262000695575b50508160011b916000199060031b1c1916176005555b7f66756e2d706f6c79676f6e2d6d756d6261692d3100000000000000000000000060029081556006805460ff191690911790556009805463ffffffff60401b19166a0493e000000000000000001790558051906001600160401b0382116200052c57819062000326600754620008fb565b601f811162000653575b50602090601f8311600114620005d957600092620005cd575b50508160011b916000199060031b1c1916176007555b51906801000000000000000082116200052c576008548260085580831062000542575b506008600090815260008051602062003d0f83398151915292915b828210620003fb57600980546001600160401b0319166001600160401b038716179055601080546001600160a01b0319166001600160a01b03881617905560405161339d90816200095282396080518181816103ac01526120460152f35b80518051906001600160401b0382116200052c576200041b8654620008fb565b601f8111620004ea575b50602090601f8311600114620004765792826001949360209386956000926200046a575b5050600019600383901b1c191690841b1787555b019401910190926200039d565b01519050388062000449565b908660005260206000209160005b601f1985168110620004d157509260209260019592869583601f19811610620004b7575b505050831b830187556200045d565b015160001960f88460031b161c19169055388080620004a8565b9192602060018192868501518155019401920162000484565b6200051a90876000526020600020601f850160051c8101916020861062000521575b601f0160051c019062000938565b3862000425565b90915081906200050c565b634e487b7160e01b600052604160045260246000fd5b600860005260008051602062003d0f8339815191529081019083015b8181106200056d575062000382565b806200057c60019254620008fb565b806200058b575b50016200055e565b601f81118314620005a35750600081555b3862000583565b600090828252620005c3601f60208420920160051c820185830162000938565b818355556200059c565b01519050388062000349565b6007600090815260008051602062003cef8339815191529350601f198516905b8181106200063a575090846001959493921062000620575b505050811b016007556200035f565b015160001960f88460031b161c1916905538808062000611565b92936020600181928786015181550195019301620005f9565b60076000526200068e9060008051602062003cef833981519152601f850160051c810191602086106200052157601f0160051c019062000938565b3862000330565b0151905038806200029f565b600560009081527f036b6384b5eca791c62761152d0c79bb0604c104a5fb6f4eb0703f3154bb3db09350601f198516905b818110620007135750908460019594939210620006f9575b505050811b01600555620002b5565b015160001960f88460031b161c19169055388080620006ea565b92936020600181928786015181550195019301620006d2565b6200075c9060056000526020600020601f850160051c810191602086106200052157601f0160051c019062000938565b3862000286565b6020813d6020116200079e575b816200077f6020938362000829565b8101031262000799575180151503620007995738620001fc565b600080fd5b3d915062000770565b6040513d6000823e3d90fd5b60405162461bcd60e51b815260206004820152601860248201527f43616e6e6f7420736574206f776e657220746f207a65726f00000000000000006044820152606490fd5b81516001600160401b03811162000799576020916200081d87848094880101620008db565b8152019101906200013e565b601f909101601f19168101906001600160401b038211908210176200052c57604052565b51906001600160a01b03821682036200079957565b51906001600160401b03821682036200079957565b92906001600160401b0381116200052c5760405160209190620008a4601f8301601f191684018262000829565b809482825282870111620007995760005b828110620008c95750600093949550010152565b868101518282018501528301620008b5565b9080601f8301121562000799578151620008f89260200162000877565b90565b90600182811c921680156200092d575b60208310146200091757565b634e487b7160e01b600052602260045260246000fd5b91607f16916200090b565b81811062000944575050565b600081556001016200093856fe6080604052600436101561001b575b361561001957600080fd5b005b60003560e01c80630bb106eb1461019b5780630ca76175146101965780631007d5791461019157806317cfd7c11461018c578063237427ad146101875780633944ea3a146101825780633aeac4e11461017d578063403fd15d146101785780634a996b2b146101735780634b0795a81461016e578063763574f61461016957806379ba5097146101645780637fa2a27b1461015f578063853d23f41461015a5780638da5cb5b146101555780638dbe7b9d1461015057806392c4592e1461014b57806396d3b83d146101465780639bb935c0146101415780639d8669851461013c578063a0712d6814610137578063e061646b14610132578063e4b123cb1461012d5763f2fde38b0361000e576118a8565b61186c565b61175d565b6114a1565b611405565b61111e565b6110c6565b610c55565b610c37565b610c0e565b610bd7565b610b84565b610ac8565b610a89565b6109a8565b6108f5565b610854565b610741565b61070d565b610597565b61054a565b610500565b61035f565b6101d1565b600435906001600160401b03821682036101b657565b600080fd5b602435906001600160401b03821682036101b657565b346101b65760203660031901126101b6576001600160401b036101f26101a0565b166000526017602052602060ff604060002054166040519015158152f35b634e487b7160e01b600052604160045260246000fd5b61018081019081106001600160401b0382111761024257604052565b610210565b604081019081106001600160401b0382111761024257604052565b60a081019081106001600160401b0382111761024257604052565b608081019081106001600160401b0382111761024257604052565b602081019081106001600160401b0382111761024257604052565b90601f801991011681019081106001600160401b0382111761024257604052565b604051906102e182610262565b565b604051906102e182610247565b604051906102e182610226565b6001600160401b03811161024257601f01601f191660200190565b81601f820112156101b65780359061032f826102fd565b9261033d60405194856102b3565b828452602083830101116101b657816000926020809301838601378301015290565b346101b65760603660031901126101b6576001600160401b036024358181116101b657610390903690600401610318565b906044358181116101b6576103a9903690600401610318565b907f00000000000000000000000000000000000000000000000000000000000000006001600160a01b031633036104ee578251908111610242576103f7816103f26003546105c3565b611a0b565b602080601f83116001146104635750819061042e94600092610458575b50508160011b916000199060031b1c191617600355612ef9565b6004357f85e1543bf2f84fe80c6badbce3648c8539ad1df4d2b3d822938ca0538be727e6600080a2005b015190503880610414565b60036000529193601f1985167fc2575a0e9e593c00f959f8c92f12db2869c3395a3b0502d05e2516446f71f85b936000905b8282106104d657505091600193918661042e9794106104bd575b505050811b01600355612ef9565b015160001960f88460031b161c191690553880806104af565b80600186978294978701518155019601940190610495565b60405163c6829f8360e01b8152600490fd5b346101b65760003660031901126101b6576020601654604051908152f35b602435906001600160a01b03821682036101b657565b600435906001600160a01b03821682036101b657565b346101b65760403660031901126101b657602061058e61056861051e565b6004356000526014835260406000209060018060a01b0316600052602052604060002090565b54604051908152f35b346101b65760203660031901126101b657600435600052600a6020526020604060002054604051908152f35b90600182811c921680156105f3575b60208310146105dd57565b634e487b7160e01b600052602260045260246000fd5b91607f16916105d2565b6040519060008260035491610611836105c3565b808352926001908181169081156106975750600114610638575b506102e1925003836102b3565b6003600090815291507fc2575a0e9e593c00f959f8c92f12db2869c3395a3b0502d05e2516446f71f85b5b84831061067c57506102e193505081016020013861062b565b81935090816020925483858a01015201910190918592610663565b9050602092506102e194915060ff191682840152151560051b8201013861062b565b919082519283825260005b8481106106e5575050826000602080949584010152601f8019910116010190565b6020818301810151848301820152016106c4565b90602061070a9281815201906106b9565b90565b346101b65760003660031901126101b65761073d6107296105fd565b6040519182916020835260208301906106b9565b0390f35b346101b65760403660031901126101b65761075a610534565b61076261051e565b61076a61196c565b6040516370a0823160e01b81523060048201526020926001600160a01b039290921691908381602481865afa90811561081057600091610827575b5080156108155760405163a9059cbb60e01b81526001600160a01b039290921660048301526024820152908290829060449082906000905af18015610810576107ea57005b8161001992903d10610809575b61080181836102b3565b8101906130ae565b503d6107f7565b611fe2565b604051630686827b60e51b8152600490fd5b6108479150843d861161084d575b61083f81836102b3565b810190611fd3565b386107a5565b503d610835565b346101b65760c03660031901126101b65760046001600160401b0381358181116101b6576108859036908401610318565b9061088e61051e565b6044358281116101b6576108a59036908601610318565b6064358381116101b6576108bc9036908701610318565b916084358481116101b6576108d49036908801610318565b9360a4359081116101b657610019966108ef91369101610318565b94611bca565b60203660031901126101b65760043561099360009180835260156020526008604084206109598580808060018060a01b0386541634905af13d156109a3573d61093d816102fd565b9061094b60405192836102b3565b81528760203d92013e613243565b016109653482546119e7565b905561097c33916000526014602052604060002090565b9060018060a01b0316600052602052604060002090565b61099e3482546119e7565b905580f35b613243565b346101b657600080600319360112610a865760405190806004546109cb816105c3565b80855291600191808316908115610a5c5750600114610a01575b61073d856109f5818703826102b3565b604051918291826106f9565b9250600483527f8a35acfbc15ff81a39ae7d344fd709f28e8600b4aa8c65c6b64bfe7fe36bd19b5b828410610a445750505081016020016109f58261073d6109e5565b80546020858701810191909152909301928101610a29565b86955061073d969350602092506109f594915060ff191682840152151560051b82010192936109e5565b80fd5b346101b65760203660031901126101b6576001600160401b03610aaa6101a0565b166000526011602052602060ff604060002054166040519015158152f35b346101b657600080600319360112610a86576001546001600160a01b039081163303610b465781546001600160a01b0316600080546001600160a01b0319163317905590600180546001600160a01b03191690553391167f8be0079c531659141344cd1fd0a4f28419497f9722a3daafe3b4186f6b6457e08380a380f35b60405162461bcd60e51b815260206004820152601660248201527526bab9ba10313290383937b837b9b2b21037bbb732b960511b6044820152606490fd5b346101b65760203660031901126101b6576004356000526015602052602060406000206009810190600a8254910155610bcc610bbe6105fd565b838082518301019101611fd3565b809155604051908152f35b346101b65760203660031901126101b6576004356000526015602052602060e0610c0460406000206132ba565b0151604051908152f35b346101b65760003660031901126101b6576000546040516001600160a01b039091168152602090f35b346101b65760003660031901126101b6576020600254604051908152f35b346101b6576040806003193601126101b657610c6f6101bb565b610c7761196c565b6001600160401b038116916000928084526020926017845260ff8386205416156110a557600490610cb382356000526015602052604060002090565b90610cc76009830154600a840154906124bc565b90610cd560135480936125d2565b508254610d19906001600160a01b0316600f546001600160a01b0316600e54909490610d11906001600160a01b03165b6001600160a01b031690565b948592613125565b600d54610d2e906001600160a01b0316610d05565b87516320487ded60e01b81529590898780610d4c8688838801612fe2565b0381845afa968715610810578b97611086575b5088516370a0823160e01b808252308483019081529091908c908290819060200103818a5afa908115610810578d91611069575b508811610fdf5750885163095ea7b360e01b8082526001600160a01b039092168382019081526020810189905290958b9187919082908f90829060400103925af190811561081057610e40958b92610fc2575b50600f54610dfe90610d05906001600160a01b031681565b600d54610e13906001600160a01b0316610d05565b8d601354938d51998a9586948593845289840160209093929193604081019460018060a01b031681520152565b03925af192831561081057610e89948a94610fa5575b50600d548b90610e6e906001600160a01b0316610d05565b928a51968795869485936396f4e9f960e01b85528401612fe2565b03925af19586156108105761073d9796610f5c575b50508491610ee87fc15fb748c32ba4eb29c1c311e78533f93b4425eab49ea87c6fe4279ecadca04392601354610ed9600783019182546119e7565b9055546001600160a01b031690565b600f54610f4b906001600160a01b0316601354600e54919491610f13906001600160a01b0316610d05565b89516001600160a01b0395861681529585166020870152604086019190915290921660608401526080830191909152819060a0820190565b0390a3519081529081906020820190565b610ee896507fc15fb748c32ba4eb29c1c311e78533f93b4425eab49ea87c6fe4279ecadca04392939181610f9b92903d1061084d5761083f81836102b3565b9581939250610e9e565b610fbb90853d87116108095761080181836102b3565b5038610e56565b610fd890833d85116108095761080181836102b3565b5038610de6565b8b83898c898f808784519384918252818061100b308b8301919091602081019260018060a01b03169052565b03915afa9586156108105795611042575b505051634787a10360e11b815291820192835260208301529081906040010390fd5b0390fd5b61103e93929550908161106092903d1061084d5761083f81836102b3565b9390918561101c565b61108091508c8d3d1061084d5761083f81836102b3565b38610d93565b61109e9197508a3d8c1161084d5761083f81836102b3565b9538610d5f565b506024915190630a503cdb60e01b82526004820152fd5b801515036101b657565b346101b65760403660031901126101b6576110df6101a0565b6001600160401b03602435916110f4836110bc565b6110fc61196c565b16600052601760205260406000209060ff801983541691151516179055600080f35b346101b65760203660031901126101b65761073d600b61114a6004356000526015602052604060002090565b6112016111e0611158611d5b565b611164600385016112cc565b61116d82611da8565b5261117781611da8565b50611184600485016112cc565b61118d82611dba565b5261119781611dba565b506111a4600585016112cc565b6111ad82611dca565b526111b781611dca565b506111ca6111c3611dee565b9182612415565b6111db6111d5611233565b826123ec565b612219565b600954600254916001600160401b0363ffffffff8360401c16921690611fee565b9181611221849361121c856000526012602052604060002090565b611f1d565b01556040519081529081906020820190565b6040519060008260055491611247836105c3565b80835292600190818116908115610697575060011461126d57506102e1925003836102b3565b6005600090815291507f036b6384b5eca791c62761152d0c79bb0604c104a5fb6f4eb0703f3154bb3db05b8483106112b157506102e193505081016020013861062b565b81935090816020925483858a01015201910190918592611298565b90604051918260008254926112e0846105c3565b90818452600194858116908160001461134d575060011461130a575b50506102e1925003836102b3565b9093915060005260209081600020936000915b8183106113355750506102e1935082010138806112fc565b8554888401850152948501948794509183019161131d565b9150506102e194506020925060ff191682840152151560051b82010138806112fc565b989591946113bf8a999e9d9c996101609c99966113db9660406113af6113e99b6113cd9860018060a01b031686526101808060208801528601906106b9565b9301528c820360608e01526106b9565b908a820360808c01526106b9565b9088820360a08a01526106b9565b9086820360c08801526106b9565b9760e08501526101008401526101208301526101408201520152565b346101b65760203660031901126101b657600435600090815260126020526040902080546001600160a01b031661073d611441600184016112cc565b92600281015490611454600382016112cc565b611460600483016112cc565b61146c600584016112cc565b611478600685016112cc565b600785015491600886015493600987015495600b600a890154980154986040519c8d9c8d611370565b346101b6576020806003193601126101b6576115d4906114ee6114e66114d36004356000526014602052604060002090565b3360009081526020919091526040902090565b54151561327d565b6010546040516001600160a01b0390911682820190815281900380825282919061158390601f199061152390602001846102b3565b6040516335313c2160e11b85820152336024820152604491820181529061154a90826102b3565b6115526130c3565b600c546001600160a01b0316916115676102d4565b9485528585015260408401526001600160a01b03166060830152565b61158b6120c7565b6080820152600b546115a790610d05906001600160a01b031681565b600e5460a01c6001600160401b031660006040518097819582946396f4e9f960e01b845260048401612fe2565b03925af18015610810577f54791b38f3859327992a1ca0590ad3c0f08feba98d1a4f56ab0dca74d203392a9261161e92600092611623575b50506040519081529081906020820190565b0390a1005b6116399250803d1061084d5761083f81836102b3565b388061160c565b602080820190808352835180925260409283810182858560051b8401019601946000925b858410611675575050505050505090565b909192939495968580600192603f198582030187528a519061169f81835160018060a01b03169052565b6117166117036116f06116dd6116c287870151610180808a8901528701906106b9565b8b8701518c87015260608088015190878303908801526106b9565b60808087015190868303908701526106b9565b60a08086015190858303908601526106b9565b60c08085015190848303908501526106b9565b9160e0808201519083015261010080820151908301526101208082015190830152610140808201519083015261016080910151910152990194019401929594939190611664565b346101b657600080600319360112610a86576016549061177c82611d44565b9060409061178c825193846102b3565b838352601f1961179b85611d44565b0190805b82811061180a5750505060015b838111156117c15781518061073d8582611640565b806117ff6117dc611805936000526015602052604060002090565b6117ee6117e88461249e565b916132ba565b6117f88288611dda565b5285611dda565b50612197565b6117ac565b602090845161181881610226565b838152606083908082840152858884015280808401528060808401528060a084015260c08301528460e08301528461010083015284610120830152846101408301528461016083015282880101520161179f565b346101b65760203660031901126101b657600435600090815260156020526040902080546001600160a01b031661073d611441600184016112cc565b346101b65760203660031901126101b6576118c1610534565b6118c961196c565b6001600160a01b031633811461192757600180546001600160a01b03191682179055600054611900906001600160a01b0316610d05565b7fed8889f560326eb138920d842192f0eb3dd22b4f139c87a2c57538e05bae1278600080a3005b60405162461bcd60e51b815260206004820152601760248201527f43616e6e6f74207472616e7366657220746f2073656c660000000000000000006044820152606490fd5b6000546001600160a01b0316330361198057565b60405162461bcd60e51b815260206004820152601660248201527527b7363c9031b0b63630b1363290313c9037bbb732b960511b6044820152606490fd5b634e487b7160e01b600052601160045260246000fd5b90602082018092116119e257565b6119be565b919082018092116119e257565b8181106119ff575050565b600081556001016119f4565b90601f8211611a18575050565b6102e19160036000527fc2575a0e9e593c00f959f8c92f12db2869c3395a3b0502d05e2516446f71f85b906020601f840160051c83019310611a62575b601f0160051c01906119f4565b9091508190611a55565b90601f8211611a79575050565b6102e19160046000527f8a35acfbc15ff81a39ae7d344fd709f28e8600b4aa8c65c6b64bfe7fe36bd19b906020601f840160051c83019310611a6257601f0160051c01906119f4565b9190601f8111611ad157505050565b6102e1926000526020600020906020601f840160051c83019310611a6257601f0160051c01906119f4565b91909182516001600160401b03811161024257611b2381611b1d84546105c3565b84611ac2565b602080601f8311600114611b5f575081929394600092611b54575b50508160011b916000199060031b1c1916179055565b015190503880611b3e565b90601f19831695611b7585600052602060002090565b926000905b888210611bb257505083600195969710611b99575b505050811b019055565b015160001960f88460031b161c19169055388080611b8f565b80600185968294968601518155019501930190611b7a565b9290949391601654956001948588018098116119e2578760005260209060158252604060002096896002890155808801928251926001600160401b03841161024257611c2084611c1a87546105c3565b87611ac2565b81601f8511600114611cb7575095611c86611ca1966102e19d9c9a968680611c9898611ca79f9c98611c8f9860069f9a600094611cac575b50501b916000199060031b1c19161790555b88546001600160a01b0319166001600160a01b03909116178855565b60038701611afc565b60048501611afc565b60058301611afc565b01611afc565b601655565b015192503880611c58565b9190601f949394198416611cd087600052602060002090565b936000905b828210611d2d575050966102e19d9c9a96611c989686611c8f96611ca79f9c96611c869660069f9a611ca19e10611d14575b505050811b019055611c6a565b015160001960f88460031b161c19169055388080611d07565b808886978294978701518155019601940190611cd5565b6001600160401b0381116102425760051b60200190565b60405190611d688261027d565b60038252819060005b606080821015611d8b579060209182828701015201611d71565b5050909150565b634e487b7160e01b600052603260045260246000fd5b805115611db55760200190565b611d92565b805160011015611db55760400190565b805160021015611db55760600190565b8051821015611db55760209160051b010190565b6040519060e082018281106001600160401b0382111761024257604052606060c08360008152600060208201526000604082015282808201528260808201528260a08201520152565b919091828114611f1857611e4b83546105c3565b6001600160401b03811161024257611e6781611b1d84546105c3565b600093601f8211600114611ea2579381929394600092611e975750508160011b916000199060031b1c1916179055565b015490503880611b3e565b611eb6601f19831691600052602060002090565b94611ec684600052602060002090565b91815b818110611f0057509583600195969710611ee757505050811b019055565b015460001960f88460031b161c19169055388080611b8f565b87830154845560019384019390920191602001611ec9565b509050565b90808203611f29575050565b805482546001600160a01b0319166001600160a01b03909116178255600b908190611f5a6001820160018601611e37565b60028101546002850155611f746003820160038601611e37565b611f846004820160048601611e37565b611f946005820160058601611e37565b611fa46006820160068601611e37565b600781015460078501556008810154600885015560098101546009850155600a810154600a8501550154910155565b908160209103126101b6575190565b6040513d6000823e3d90fd5b92906020926001600160401b039263ffffffff61202d604051978896879663230e93b160e11b885216600487015260a0602487015260a48601906106b9565b60016044860152921660648401526084830152038160007f00000000000000000000000000000000000000000000000000000000000000006001600160a01b03165af1908115610810576000916120a9575b50807f1131472297a800fee664d1d89cfa8f7676ff07189ecc53f80bbb5f4969099db8600080a290565b6120c1915060203d811161084d5761083f81836102b3565b3861207f565b604051906120d482610298565b60008252565b604051906120e782610247565b600c82526b31b7b232a637b1b0ba34b7b760a11b6020830152565b634e487b7160e01b600052602160045260246000fd5b6003111561212257565b612102565b6040519061213482610247565b60088252676c616e677561676560c01b6020830152565b6001111561212257565b6040519061216282610247565b6006825265736f7572636560d01b6020830152565b6040519061218482610247565b60048252636172677360e01b6020830152565b60001981146119e25760010190565b604051906121b382610247565b600f82526e39b2b1b932ba39a637b1b0ba34b7b760891b6020830152565b604051906121de82610247565b60078252667365637265747360c81b6020830152565b6040519061220182610247565b600982526862797465734172677360b81b6020830152565b61222161244e565b9061223361222d6120da565b83612bba565b612250815161224181612118565b61224a81612118565b8361251b565b61225b61222d612127565b612275604082015161226c8161214b565b61224a8161214b565b61228061222d612155565b61228e606082015183612bba565b60a08101805151612393575b506080810190815151612313575b60c09150018051516122bb575b50515190565b916122c761222d6121f4565b6122d082612c3e565b60005b8351805182101561230057906122f66122ef826122fb94611dda565b5185612b05565b612197565b6122d3565b5050915061230d81612cca565b386122b5565b60208101805161232281612118565b61232b81612118565b156123815760c09261236461237c9261234b6123456121a6565b88612bba565b5161235581612118565b61235e81612118565b8661251b565b61237561236f6121d1565b86612bba565b5184612b05565b6122a8565b60405163a80d31f760e01b8152600490fd5b926123a561239f612177565b84612bba565b6123ae83612c3e565b60005b845180518210156123d957906122f66123cd826123d494611dda565b5186612bba565b6123b1565b505092506123e682612cca565b3861229a565b815115612403576000808252604082015260600152565b6040516322ce3edd60e01b8152600490fd5b8151156124225760a00152565b60405163fe936cb760e01b8152600490fd5b6040519061244182610247565b6000602083606081520152565b60405161245a81610247565b612462612434565b8082526020820160008152612475612434565b5061010060208301526040518092526000825261012082019182106101b6576000916040525290565b6000198101919082116119e257565b601f198101919082116119e257565b919082039182116119e257565b906124d2612434565b50601f811680612501575b50806020830152604051908183526000825281016020019081106101b65760405290565b602003602081116119e25781018091116119e257386124dd565b90815191612527612434565b5082515160018101908181116119e2576020850151811015612580575b60c260206102e19651928301015380518211612578575b50506040519160208301526020825261257382610247565b612b05565b52388061255b565b8160011b94828604600214831517156119e2576020816125b26102e1986125ab60c2955191846124c9565b5082612a4d565b5096505050612544565b908160011b91808304600214901517156119e257565b818102929181159184041417156119e257565b6125ed612434565b5080515160018101908181116119e2576020830151811015612626575b605b6020845192830101538051821161262257505090565b5290565b8160011b828104600214831517156119e25761264f90612648855191866124c9565b5084612a4d565b5061260a565b61265d612434565b5080515160018101908181116119e2576020830151811015612692575b605a6020845192830101538051821161262257505090565b8160011b828104600214831517156119e2576126b490612648855191866124c9565b5061267a565b6126c2612434565b5080515160018101908181116119e25760208301518110156126f7575b60596020845192830101538051821161262257505090565b8160011b828104600214831517156119e25761271990612648855191866124c9565b506126df565b612727612434565b5080515160018101908181116119e257602083015181101561275c575b60586020845192830101538051821161262257505090565b8160011b828104600214831517156119e25761277e90612648855191866124c9565b50612744565b61278c612434565b5080515160018101908181116119e25760208301518110156127c1575b607b6020845192830101538051821161262257505090565b8160011b828104600214831517156119e2576127e390612648855191866124c9565b506127a9565b6127f1612434565b5080515160018101908181116119e2576020830151811015612826575b607a6020845192830101538051821161262257505090565b8160011b828104600214831517156119e25761284890612648855191866124c9565b5061280e565b612856612434565b5080515160018101908181116119e257602083015181101561288b575b60796020845192830101538051821161262257505090565b8160011b828104600214831517156119e2576128ad90612648855191866124c9565b50612873565b6128bb612434565b5080515160018101908181116119e25760208301518110156128f0575b60786020845192830101538051821161262257505090565b8160011b828104600214831517156119e25761291290612648855191866124c9565b506128d8565b90612921612434565b5081515160018101918282116119e2576020840151821015612954575b6020845192830101538051821161262257505090565b8260011b838104600214841517156119e25761297d90612976865191876124c9565b5085612a4d565b5061293e565b90612990825191836124c9565b50612999612434565b508051906129a5612434565b506129b38151831115612afe565b825151926129c183856119e7565b916020928284809401518211612a36575b5183815197820101968211612a2e575b505001915b81811015612a085760001991036101000a0190811990511690825116179052565b9192612a23612a1d612a2992865181526119d4565b946119d4565b926124ad565b6129e7565b5238806129e2565b612a48612a42836125bc565b82612983565b6129d2565b90612a56612434565b508051612a61612434565b50612a6f8251821115612afe565b82515191612a7d82846119e7565b6020918291828701518111612ae7575b865183815197820101968211612adf575b505001915b81811015612ac55760001991036101000a019081199051169082511617905290565b9192612a23612a1d612ada92865181526119d4565b612aa3565b523880612a9e565b612af9612af3826125bc565b88612983565b612a8d565b156101b657565b8151612b3c9291906001600160401b0381169060178211612b3f57612b349150604060ff845192161790612918565b505b51612a4d565b50565b5060ff8111612b6457612b5e90612b56835161271f565b508251612e93565b50612b36565b61ffff8111612b8357612b5e90612b7b83516126ba565b508251612e2c565b63ffffffff8111612ba457612b5e90612b9c8351612655565b508251612dc3565b612b5e90612bb283516125e5565b508251612d57565b8151612b3c9291906001600160401b0381169060178211612be957612b349150606060ff845192161790612918565b5060ff8111612c0057612b5e90612b5683516128b3565b61ffff8111612c1757612b5e90612b7b835161284e565b63ffffffff8111612c3057612b5e90612b9c83516127e9565b612b5e90612bb28351612784565b805190612c49612434565b5081515160018101908181116119e2576020840151811015612c97575b609f6020809551928301015380518211612c8f575b505001805190600182018092116119e25752565b523880612c7b565b8160011b93828504600214831517156119e257602081612cc082976125ab609f955191846124c9565b5095505050612c66565b805190612cd5612434565b5081515160018101908181116119e2576020840151811015612d24575b60ff6020809551928301015380518211612d1c575b50500180516000198101919082116119e25752565b523880612d07565b8160011b93828504600214831517156119e257602081612d4d82976125ab60ff955191846124c9565b5095505050612cf2565b90612d60612434565b508151518060080191826008116119e25760208401518311612da2575b6008845192830101906001600160401b03198251161790528051821161262257505090565b8260011b838104600214841517156119e257612dbe9085612983565b612d7d565b90612dcc612434565b508151518060040191826004116119e25760208401518311612e0b575b60048451928301019063ffffffff198251161790528051821161262257505090565b8260011b838104600214841517156119e257612e279085612983565b612de9565b90612e35612434565b508151518060020191826002116119e25760208401518311612e72575b60028451928301019061ffff198251161790528051821161262257505090565b8260011b838104600214841517156119e257612e8e9085612983565b612e52565b90612e9c612434565b508151518060010191826001116119e25760208401518311612ed8575b60018451928301019060ff198251161790528051821161262257505090565b8260011b838104600214841517156119e257612ef49085612983565b612eb9565b9081516001600160401b03811161024257612f1e81612f196004546105c3565b611a6c565b602080601f8311600114612f5a5750819293600092612f4f575b50508160011b916000199060031b1c191617600455565b015190503880612f38565b90601f19831694612f8d60046000527f8a35acfbc15ff81a39ae7d344fd709f28e8600b4aa8c65c6b64bfe7fe36bd19b90565b926000905b878210612fca575050836001959610612fb1575b505050811b01600455565b015160001960f88460031b161c19169055388080612fa6565b80600185968294968601518155019501930190612f92565b906001600160401b039093929316815260406020918183820152613011855160a08484015260e08301906106b9565b9161302d8487015193603f1994858583030160608601526106b9565b8187015194848483030160808501528080875193848152019601926000905b8382106130855750505060608701516001600160a01b031660a084015250939461070a945060c0906080015192828503019101526106b9565b845180516001600160a01b0316895283015188840152968701969382019360019091019061304c565b908160209103126101b6575161070a816110bc565b6040516130cf81610298565b6000815290565b6040908151916130e583610247565b600183528291600091825b60208082101561311c5782516020929161310982610247565b86825286818301528289010152016130f0565b50505091925050565b9260806131c26131b49561320c9460405161313f81610262565b606094818680935282602082015282604082015260008382015201526131636130d6565b9661317e61316f6102e3565b6001600160a01b039093168352565b602082015261318c87611da8565b5261319686611da8565b50604080516001600160a01b03909216602083015290968791820190565b03601f1981018752866102b3565b6131dd6131cd6102e3565b6000815260006020820152613214565b936131e66102d4565b9586526131f16120c7565b602087015260408601526001600160a01b0390911690840152565b608082015290565b6020604051916397a657c960e01b82840152805160248401520151151560448201526044815261070a8161027d565b1561324a57565b60405162461bcd60e51b815260206004820152600b60248201526a10d85b1b0819985a5b195960aa1b6044820152606490fd5b1561328457565b60405162461bcd60e51b815260206004820152600e60248201526d139bc81cdd185ad948199bdd5b9960921b6044820152606490fd5b90600b6132c56102f0565b83546001600160a01b03168152926132df600182016112cc565b6020850152600281015460408501526132fa600382016112cc565b606085015261330b600482016112cc565b608085015261331c600582016112cc565b60a085015261332d600682016112cc565b60c0850152600781015460e085015260088101546101008501526009810154610120850152600a810154610140850152015461016083015256fea2646970667358221220daf6bb2a4e0b23a536a51e0f116d3c7edee90086865451aacc7055528157b24c64736f6c63430008130033a66cc928b5edb82af9bd49922954155ab7b0942694bea4ce44661d9a8736c688f3f7a9fe364faab93b216da50a3214154f22a0a2b415b23a84c8169e8b636ee3",
  "linkReferences": {},
  "deployedLinkReferences": {}
}