{
  "_format": "hh-sol-artifact-1",
  "contractName": "SourceMinter",
  "sourceName": "contracts/StakerCertificateMinter.sol",
  "abi": [
    {
      "inputs": [
        {
          "internalType": "address",
          "name": "router",
          "type": "address"
        },
        {
          "internalType": "address",
          "name": "link",
          "type": "address"
        }
      ],
      "stateMutability": "nonpayable",
      "type": "constructor"
    },
    {
      "anonymous": false,
      "inputs": [
        {
          "indexed": false,
          "internalType": "bytes32",
          "name": "messageId",
          "type": "bytes32"
        }
      ],
      "name": "MessageSent",
      "type": "event"
    },
    {
      "inputs": [],
      "name": "mint",
      "outputs": [],
      "stateMutability": "nonpayable",
      "type": "function"
    },
    {
      "stateMutability": "payable",
      "type": "receive"
    }
  ],
  "bytecode": "0x60808060405234610132576040816104bc803803809161001f8285610137565b8339810103126101325761003e602061003783610170565b9201610170565b60018060a01b0380921690602060018060a01b031992604460009586948387875416178655169182866001541617600155604051948593849263095ea7b360e01b8452600484015260001960248401525af18015610127576100e8575b60018054600160a01b600160e01b03191667de41ba4fc9d91ad960a01b179055600280548316731ff263e7ce2d42384da9996173c258277cf8246417905560405161033790816101858239f35b6020813d821161011f575b8161010060209383610137565b8101031261011b575180151503610117578161009b565b5080fd5b8280fd5b3d91506100f3565b6040513d85823e3d90fd5b600080fd5b601f909101601f19168101906001600160401b0382119082101761015a57604052565b634e487b7160e01b600052604160045260246000fd5b51906001600160a01b03821682036101325756fe60806004361015610019575b50361561001757600080fd5b005b60003560e01c631249c58b0361000b5734610265576000366003190112610265576002546001600160a01b03166020828101919091528152604081019067ffffffffffffffff82118183101761026a576335313c2160e11b60608201523360648201526024825260a0810167ffffffffffffffff81118382101761026a5760c0820181811067ffffffffffffffff82111761026a5760405260008152600154926040519260a0840184811067ffffffffffffffff82111761026a5760405283526020830152604082015260018060a01b03821660608201526040516020810181811067ffffffffffffffff82111761026a579067ffffffffffffffff939160405260008152608083015260018060a01b0360005416916040519384926396f4e9f960e01b845260a01c1660048301526040602483015261017e610168825160a0604486015260e48501906102c1565b60208301518482036043190160648601526102c1565b906040810151916043198482030160848501526020808451928381520193019060005b8181106102935750505060608101516001600160a01b031660a4840152608001518282036043190160c484015260209391839160009183916101e391906102c1565b03925af190811561028757600091610223575b7f54791b38f3859327992a1ca0590ad3c0f08feba98d1a4f56ab0dca74d203392a602083604051908152a1005b905060203d602011610280575b601f8101601f1916820167ffffffffffffffff81118382101761026a57602091839160405281010312610265575160206101f6565b600080fd5b634e487b7160e01b600052604160045260246000fd5b503d610230565b6040513d6000823e3d90fd5b825180516001600160a01b0316865260209081015181870152889650604090950194909201916001016101a1565b919082519283825260005b8481106102ed575050826000602080949584010152601f8019910116010190565b6020818301810151848301820152016102cc56fea2646970667358221220507585618fee96878b607caf60cdb8f00de982378d09abd22cf774367b47f01164736f6c63430008130033",
  "linkReferences": {},
  "deployedLinkReferences": {}
}