{
  "_format": "hh-sol-artifact-1",
  "contractName": "TipperDapp",
  "sourceName": "contracts/TipperDapp.sol",
  "abi": [
    {
      "anonymous": false,
      "inputs": [
        {
          "indexed": false,
          "internalType": "string",
          "name": "NAME",
          "type": "string"
        },
        {
          "indexed": false,
          "internalType": "address",
          "name": "ARTIST",
          "type": "address"
        }
      ],
      "name": "ArtistRegistered",
      "type": "event"
    },
    {
      "anonymous": false,
      "inputs": [
        {
          "indexed": false,
          "internalType": "string",
          "name": "Name",
          "type": "string"
        },
        {
          "indexed": false,
          "internalType": "uint256",
          "name": "Token",
          "type": "uint256"
        },
        {
          "indexed": false,
          "internalType": "address[]",
          "name": "Candidates",
          "type": "address[]"
        }
      ],
      "name": "ElectionCreated",
      "type": "event"
    },
    {
      "anonymous": false,
      "inputs": [
        {
          "indexed": false,
          "internalType": "string",
          "name": "NAME",
          "type": "string"
        },
        {
          "indexed": false,
          "internalType": "address",
          "name": "TIPPER",
          "type": "address"
        }
      ],
      "name": "TipperRegistered",
      "type": "event"
    },
    {
      "inputs": [
        {
          "internalType": "address",
          "name": "",
          "type": "address"
        }
      ],
      "name": "artists",
      "outputs": [
        {
          "internalType": "string",
          "name": "name",
          "type": "string"
        },
        {
          "internalType": "address",
          "name": "user_address",
          "type": "address"
        }
      ],
      "stateMutability": "view",
      "type": "function"
    },
    {
      "inputs": [
        {
          "internalType": "address",
          "name": "",
          "type": "address"
        }
      ],
      "name": "candidates",
      "outputs": [
        {
          "internalType": "string",
          "name": "name",
          "type": "string"
        },
        {
          "internalType": "address",
          "name": "user_address",
          "type": "address"
        },
        {
          "internalType": "uint256",
          "name": "votes",
          "type": "uint256"
        }
      ],
      "stateMutability": "view",
      "type": "function"
    },
    {
      "inputs": [
        {
          "internalType": "address",
          "name": "_owner",
          "type": "address"
        },
        {
          "internalType": "string",
          "name": "_electionName",
          "type": "string"
        },
        {
          "internalType": "uint256",
          "name": "_voteToken",
          "type": "uint256"
        },
        {
          "internalType": "string",
          "name": "_image",
          "type": "string"
        },
        {
          "internalType": "address[]",
          "name": "_candidateAddress",
          "type": "address[]"
        }
      ],
      "name": "createElection",
      "outputs": [
        {
          "internalType": "uint256",
          "name": "",
          "type": "uint256"
        }
      ],
      "stateMutability": "nonpayable",
      "type": "function"
    },
    {
      "inputs": [
        {
          "internalType": "uint256",
          "name": "",
          "type": "uint256"
        }
      ],
      "name": "electionresults",
      "outputs": [
        {
          "internalType": "uint256",
          "name": "electionId",
          "type": "uint256"
        },
        {
          "internalType": "string",
          "name": "electionName",
          "type": "string"
        },
        {
          "internalType": "string",
          "name": "image",
          "type": "string"
        }
      ],
      "stateMutability": "view",
      "type": "function"
    },
    {
      "inputs": [
        {
          "internalType": "uint256",
          "name": "",
          "type": "uint256"
        }
      ],
      "name": "elections",
      "outputs": [
        {
          "internalType": "address",
          "name": "owner",
          "type": "address"
        },
        {
          "internalType": "uint256",
          "name": "Id",
          "type": "uint256"
        },
        {
          "internalType": "string",
          "name": "electionName",
          "type": "string"
        },
        {
          "internalType": "uint256",
          "name": "voteToken",
          "type": "uint256"
        },
        {
          "internalType": "string",
          "name": "image",
          "type": "string"
        }
      ],
      "stateMutability": "view",
      "type": "function"
    },
    {
      "inputs": [
        {
          "internalType": "uint256",
          "name": "",
          "type": "uint256"
        },
        {
          "internalType": "address",
          "name": "",
          "type": "address"
        }
      ],
      "name": "electionvoters",
      "outputs": [
        {
          "internalType": "bool",
          "name": "voted",
          "type": "bool"
        }
      ],
      "stateMutability": "view",
      "type": "function"
    },
    {
      "inputs": [
        {
          "internalType": "address",
          "name": "_userAddress",
          "type": "address"
        }
      ],
      "name": "getArtist",
      "outputs": [
        {
          "internalType": "address",
          "name": "",
          "type": "address"
        }
      ],
      "stateMutability": "view",
      "type": "function"
    },
    {
      "inputs": [],
      "name": "getElections",
      "outputs": [
        {
          "components": [
            {
              "internalType": "address",
              "name": "owner",
              "type": "address"
            },
            {
              "internalType": "uint256",
              "name": "Id",
              "type": "uint256"
            },
            {
              "internalType": "string",
              "name": "electionName",
              "type": "string"
            },
            {
              "internalType": "uint256",
              "name": "voteToken",
              "type": "uint256"
            },
            {
              "internalType": "address[]",
              "name": "candidateAddress",
              "type": "address[]"
            },
            {
              "internalType": "string",
              "name": "image",
              "type": "string"
            }
          ],
          "internalType": "struct TipperDapp.Election[]",
          "name": "",
          "type": "tuple[]"
        }
      ],
      "stateMutability": "view",
      "type": "function"
    },
    {
      "inputs": [
        {
          "internalType": "address",
          "name": "_userAddress",
          "type": "address"
        }
      ],
      "name": "getUser",
      "outputs": [
        {
          "internalType": "address",
          "name": "",
          "type": "address"
        }
      ],
      "stateMutability": "view",
      "type": "function"
    },
    {
      "inputs": [
        {
          "internalType": "uint256",
          "name": "_electionId",
          "type": "uint256"
        },
        {
          "internalType": "address",
          "name": "_candidateAddress",
          "type": "address"
        }
      ],
      "name": "makeVote",
      "outputs": [],
      "stateMutability": "payable",
      "type": "function"
    },
    {
      "inputs": [
        {
          "internalType": "address",
          "name": "_artistAddress",
          "type": "address"
        }
      ],
      "name": "make_Tip",
      "outputs": [],
      "stateMutability": "payable",
      "type": "function"
    },
    {
      "inputs": [],
      "name": "numberOfElections",
      "outputs": [
        {
          "internalType": "uint256",
          "name": "",
          "type": "uint256"
        }
      ],
      "stateMutability": "view",
      "type": "function"
    },
    {
      "inputs": [
        {
          "internalType": "string",
          "name": "_name",
          "type": "string"
        }
      ],
      "name": "registerArtist",
      "outputs": [],
      "stateMutability": "nonpayable",
      "type": "function"
    },
    {
      "inputs": [
        {
          "internalType": "string",
          "name": "_name",
          "type": "string"
        }
      ],
      "name": "registerTipper",
      "outputs": [],
      "stateMutability": "nonpayable",
      "type": "function"
    },
    {
      "inputs": [
        {
          "internalType": "address",
          "name": "",
          "type": "address"
        }
      ],
      "name": "tippers",
      "outputs": [
        {
          "internalType": "string",
          "name": "name",
          "type": "string"
        },
        {
          "internalType": "address",
          "name": "user_address",
          "type": "address"
        }
      ],
      "stateMutability": "view",
      "type": "function"
    },
    {
      "inputs": [
        {
          "internalType": "uint256",
          "name": "",
          "type": "uint256"
        }
      ],
      "name": "users",
      "outputs": [
        {
          "internalType": "address",
          "name": "",
          "type": "address"
        }
      ],
      "stateMutability": "view",
      "type": "function"
    },
    {
      "inputs": [
        {
          "internalType": "uint256",
          "name": "_electionId",
          "type": "uint256"
        }
      ],
      "name": "viewResults",
      "outputs": [
        {
          "internalType": "address[]",
          "name": "",
          "type": "address[]"
        },
        {
          "internalType": "uint256[]",
          "name": "",
          "type": "uint256[]"
        }
      ],
      "stateMutability": "view",
      "type": "function"
    }
  ],
  "bytecode": "0x6080604052600060085534801561001557600080fd5b50611c39806100256000396000f3fe6080604052600436106100fe5760003560e01c8063896eb98b116100955780639f3a7f52116100645780639f3a7f521461031d578063b3cdda961461033f578063b949c80414610352578063cdc389f614610372578063ed984bd61461038857600080fd5b8063896eb98b1461028b5780638a28610b146102a05780638ab66a90146102ce5780639355d419146102fd57600080fd5b8063365b98b2116100d1578063365b98b2146101d357806357c7c70f1461020b5780635e6fef011461023a5780636f77926b1461026b57600080fd5b8063069dab8f146101035780632bd87d491461013a5780632c7cce84146101685780632f87a9bd14610188575b600080fd5b34801561010f57600080fd5b5061012361011e3660046113b8565b6103a8565b604051610131929190611420565b60405180910390f35b34801561014657600080fd5b5061015a61015536600461144a565b610455565b604051610131929190611463565b34801561017457600080fd5b506101236101833660046113b8565b610524565b34801561019457600080fd5b506101c36101a33660046114e7565b600660209081526000928352604080842090915290825290205460ff1681565b6040519015158152602001610131565b3480156101df57600080fd5b506101f36101ee36600461144a565b61053f565b6040516001600160a01b039091168152602001610131565b34801561021757600080fd5b5061022b61022636600461144a565b610569565b60405161013193929190611513565b34801561024657600080fd5b5061025a61025536600461144a565b61069c565b604051610131959493929190611548565b34801561027757600080fd5b506101f36102863660046113b8565b6107e5565b61029e6102993660046114e7565b6108b9565b005b3480156102ac57600080fd5b506102c06102bb36600461164a565b610b19565b604051908152602001610131565b3480156102da57600080fd5b506102ee6102e93660046113b8565b610cc7565b6040516101319392919061175d565b34801561030957600080fd5b5061029e61031836600461178b565b610d7b565b34801561032957600080fd5b50610332610e27565b60405161013191906117c8565b61029e61034d3660046113b8565b6110cb565b34801561035e57600080fd5b506101f361036d3660046113b8565b611160565b34801561037e57600080fd5b506102c060085481565b34801561039457600080fd5b5061029e6103a336600461178b565b611194565b6001602052600090815260409020805481906103c3906118c3565b80601f01602080910402602001604051908101604052809291908181526020018280546103ef906118c3565b801561043c5780601f106104115761010080835404028352916020019161043c565b820191906000526020600020905b81548152906001019060200180831161041f57829003601f168201915b505050600190930154919250506001600160a01b031682565b6000818152600760209081526040918290206002810180548451818502810185019095528085526060948594600485019284918301828280156104c157602002820191906000526020600020905b81546001600160a01b031681526001909101906020018083116104a3575b505050505091508080548060200260200160405190810160405280929190818152602001828054801561051357602002820191906000526020600020905b8154815260200190600101908083116104ff575b505050505090509250925050915091565b6002602052600090815260409020805481906103c3906118c3565b6000818154811061054f57600080fd5b6000918252602090912001546001600160a01b0316905081565b6007602052600090815260409020805460018201805491929161058b906118c3565b80601f01602080910402602001604051908101604052809291908181526020018280546105b7906118c3565b80156106045780601f106105d957610100808354040283529160200191610604565b820191906000526020600020905b8154815290600101906020018083116105e757829003601f168201915b505050505090806005018054610619906118c3565b80601f0160208091040260200160405190810160405280929190818152602001828054610645906118c3565b80156106925780601f1061066757610100808354040283529160200191610692565b820191906000526020600020905b81548152906001019060200180831161067557829003601f168201915b5050505050905083565b6005602052600090815260409020805460018201546002830180546001600160a01b039093169391926106ce906118c3565b80601f01602080910402602001604051908101604052809291908181526020018280546106fa906118c3565b80156107475780601f1061071c57610100808354040283529160200191610747565b820191906000526020600020905b81548152906001019060200180831161072a57829003601f168201915b505050505090806003015490806005018054610762906118c3565b80601f016020809104026020016040519081016040528092919081815260200182805461078e906118c3565b80156107db5780601f106107b0576101008083540402835291602001916107db565b820191906000526020600020905b8154815290600101906020018083116107be57829003601f168201915b5050505050905085565b6001600160a01b038116600090815260026020526040808220815180830190925280548392919082908290610819906118c3565b80601f0160208091040260200160405190810160405280929190818152602001828054610845906118c3565b80156108925780601f1061086757610100808354040283529160200191610892565b820191906000526020600020905b81548152906001019060200180831161087557829003601f168201915b5050509183525050600191909101546001600160a01b031660209182015201519392505050565b600082815260066020908152604080832033845290915290205460ff16156109185760405162461bcd60e51b815260206004820152600d60248201526c105b1c9958591e48159bdd1959609a1b60448201526064015b60405180910390fd5b6000816001600160a01b03163460405160006040518083038185875af1925050503d8060008114610965576040519150601f19603f3d011682016040523d82523d6000602084013e61096a565b606091505b50509050806109a95760405162461bcd60e51b815260206004820152600b60248201526a10d85b1b0819985a5b195960aa1b604482015260640161090f565b60008381526006602090815260408083203384528252808320805460ff8116151560ff199091161790556001600160a01b03851683526003909152812060028101805491926109f7836118f7565b9091555050600084815260076020908152604080832087815560059092529091206001820190610a2a906002018261196d565b50600281018054600180820183556000928352602080842090920180546001600160a01b0319166001600160a01b03891617905560038401805491820181558352912001610a78838261196d565b506002820154600482018054600181810183556000928352602080842090920193909355878252600790526040902082548155829181810190610abd9084018261196d565b5060028281018054610ad29284019190611234565b5060038281018054610ae79284019190611284565b5060048281018054610afc9284019190611234565b50600581810190610b0f9084018261196d565b5050505050505050565b600880546000818152600560205260408120909290919083610b3a836118f7565b90915550600182015560028101610b518782611a4e565b506003810185905560058101610b678582611a4e565b5080546001600160a01b0319166001600160a01b0388161781558251610b949060049060208601906112d8565b5060005b600454811015610c3957600060048281548110610bb757610bb7611b08565b60009182526020808320909101546001600160a01b03168083526003825260408084206001909352909220919250908190610bf2908261196d565b506001600160a01b039182166000908152600160208190526040909120810154910180546001600160a01b0319169190921617905580610c31816118f7565b915050610b98565b506001810154600090815260056020526040902060048054610c5e9282019190611234565b50600181015460009081526005602052604090819020600381015491517f3fccf5ebb501eb66dfcfc8d00f9e5b683d7073c4fa7a4272151fe2ff419301f992610cb1926002810192600490910190611b67565b60405180910390a1600101549695505050505050565b600360205260009081526040902080548190610ce2906118c3565b80601f0160208091040260200160405190810160405280929190818152602001828054610d0e906118c3565b8015610d5b5780601f10610d3057610100808354040283529160200191610d5b565b820191906000526020600020905b815481529060010190602001808311610d3e57829003601f168201915b50505050600183015460029093015491926001600160a01b031691905083565b60408051808201825260608152600060209182018190528251808401845284815233818401819052825260019092529190912081518291908190610dbf9082611a4e565b5060209190910151600190910180546001600160a01b0319166001600160a01b039092169190911790556040517f3d29da7fef11a3d9e7980c76d39c19e6bd3c33cf9f32c9569f856267bbdeedfd90610e1b9084903390611420565b60405180910390a15050565b6060600060085467ffffffffffffffff811115610e4657610e46611593565b604051908082528060200260200182016040528015610eb957816020015b610ea66040518060c0016040528060006001600160a01b0316815260200160008152602001606081526020016000815260200160608152602001606081525090565b815260200190600190039081610e645790505b50905060005b6008548110156110c557600081815260056020908152604091829020825160c08101845281546001600160a01b03168152600182015492810192909252600281018054919384929084019190610f14906118c3565b80601f0160208091040260200160405190810160405280929190818152602001828054610f40906118c3565b8015610f8d5780601f10610f6257610100808354040283529160200191610f8d565b820191906000526020600020905b815481529060010190602001808311610f7057829003601f168201915b505050505081526020016003820154815260200160048201805480602002602001604051908101604052809291908181526020018280548015610ff957602002820191906000526020600020905b81546001600160a01b03168152600190910190602001808311610fdb575b50505050508152602001600582018054611012906118c3565b80601f016020809104026020016040519081016040528092919081815260200182805461103e906118c3565b801561108b5780601f106110605761010080835404028352916020019161108b565b820191906000526020600020905b81548152906001019060200180831161106e57829003601f168201915b5050505050815250508383815181106110a6576110a6611b08565b60200260200101819052505080806110bd906118f7565b915050610ebf565b50919050565b6000816001600160a01b03163460405160006040518083038185875af1925050503d8060008114611118576040519150601f19603f3d011682016040523d82523d6000602084013e61111d565b606091505b505090508061115c5760405162461bcd60e51b815260206004820152600b60248201526a10d85b1b0819985a5b195960aa1b604482015260640161090f565b5050565b6001600160a01b038116600090815260016020526040808220815180830190925280548392919082908290610819906118c3565b604080518082018252606081526000602091820181905282518084018452848152338184018190528252600290925291909120815182919081906111d89082611a4e565b5060209190910151600190910180546001600160a01b0319166001600160a01b039092169190911790556040517f060fbb9fe763baac21cfeed4755196f7525f465fcc111564be2e535e51fb984b90610e1b9084903390611420565b8280548282559060005260206000209081019282156112745760005260206000209182015b82811115611274578254825591600101919060010190611259565b5061128092915061132d565b5090565b8280548282559060005260206000209081019282156112cc5760005260206000209182015b828111156112cc57816112bc848261196d565b50916001019190600101906112a9565b50611280929150611342565b828054828255906000526020600020908101928215611274579160200282015b8281111561127457825182546001600160a01b0319166001600160a01b039091161782556020909201916001909101906112f8565b5b80821115611280576000815560010161132e565b80821115611280576000611356828261135f565b50600101611342565b50805461136b906118c3565b6000825580601f1061137b575050565b601f016020900490600052602060002090810190611399919061132d565b50565b80356001600160a01b03811681146113b357600080fd5b919050565b6000602082840312156113ca57600080fd5b6113d38261139c565b9392505050565b6000815180845260005b81811015611400576020818501810151868301820152016113e4565b506000602082860101526020601f19601f83011685010191505092915050565b60408152600061143360408301856113da565b905060018060a01b03831660208301529392505050565b60006020828403121561145c57600080fd5b5035919050565b604080825283519082018190526000906020906060840190828701845b828110156114a55781516001600160a01b031684529284019290840190600101611480565b5050508381038285015284518082528583019183019060005b818110156114da578351835292840192918401916001016114be565b5090979650505050505050565b600080604083850312156114fa57600080fd5b8235915061150a6020840161139c565b90509250929050565b83815260606020820152600061152c60608301856113da565b828103604084015261153e81856113da565b9695505050505050565b60018060a01b038616815284602082015260a06040820152600061156f60a08301866113da565b846060840152828103608084015261158781856113da565b98975050505050505050565b634e487b7160e01b600052604160045260246000fd5b604051601f8201601f1916810167ffffffffffffffff811182821017156115d2576115d2611593565b604052919050565b600082601f8301126115eb57600080fd5b813567ffffffffffffffff81111561160557611605611593565b611618601f8201601f19166020016115a9565b81815284602083860101111561162d57600080fd5b816020850160208301376000918101602001919091529392505050565b600080600080600060a0868803121561166257600080fd5b61166b8661139c565b945060208087013567ffffffffffffffff8082111561168957600080fd5b6116958a838b016115da565b96506040890135955060608901359150808211156116b257600080fd5b6116be8a838b016115da565b945060808901359150808211156116d457600080fd5b818901915089601f8301126116e857600080fd5b8135818111156116fa576116fa611593565b8060051b915061170b8483016115a9565b818152918301840191848101908c84111561172557600080fd5b938501935b8385101561174a5761173b8561139c565b8252938501939085019061172a565b8096505050505050509295509295909350565b60608152600061177060608301866113da565b6001600160a01b039490941660208301525060400152919050565b60006020828403121561179d57600080fd5b813567ffffffffffffffff8111156117b457600080fd5b6117c0848285016115da565b949350505050565b60006020808301818452808551808352604092508286019150828160051b8701018488016000805b848110156118b457898403603f19018652825180516001600160a01b039081168652898201518a8701528882015160c08a88018190529190611834838901826113da565b606085810151908a01526080808601518a8303918b01919091528051808352908e019450908d01915086905b8082101561188257845184168352938d0193918d019160019190910190611860565b505060a0938401518882038986015293925061189e81856113da565b998c0199975050509389019350506001016117f0565b50919998505050505050505050565b600181811c908216806118d757607f821691505b6020821081036110c557634e487b7160e01b600052602260045260246000fd5b60006001820161191757634e487b7160e01b600052601160045260246000fd5b5060010190565b601f82111561196857600081815260208120601f850160051c810160208610156119455750805b601f850160051c820191505b8181101561196457828155600101611951565b5050505b505050565b818103611978575050565b61198282546118c3565b67ffffffffffffffff81111561199a5761199a611593565b6119ae816119a884546118c3565b8461191e565b6000601f8211600181146119e257600083156119ca5750848201545b600019600385901b1c1916600184901b178455611a47565b600085815260209020601f19841690600086815260209020845b83811015611a1c57828601548255600195860195909101906020016119fc565b5085831015611a3a5781850154600019600388901b60f8161c191681555b50505060018360011b0184555b5050505050565b815167ffffffffffffffff811115611a6857611a68611593565b611a76816119a884546118c3565b602080601f831160018114611aab5760008415611a935750858301515b600019600386901b1c1916600185901b178555611964565b600085815260208120601f198616915b82811015611ada57888601518255948401946001909101908401611abb565b5085821015611af85787850151600019600388901b60f8161c191681555b5050505050600190811b01905550565b634e487b7160e01b600052603260045260246000fd5b6000815480845260208085019450836000528060002060005b83811015611b5c5781546001600160a01b031687529582019560019182019101611b37565b509495945050505050565b606081526000808554611b79816118c3565b8060608601526080600180841660008114611b9b5760018114611bb557611be6565b60ff1985168884015283151560051b880183019550611be6565b8a60005260208060002060005b86811015611bdd5781548b8201870152908401908201611bc2565b8a018501975050505b5050505050846020840152828103604084015261153e8185611b1e56fea2646970667358221220f71e3983b20d3b389aa994a85944515b90205cafc60be69dc4bc6bf817f0022664736f6c63430008130033",
  "linkReferences": {},
  "deployedLinkReferences": {}
}